{
  "transactions": [
    {
      "hash": "0xcb633fef7f1c39b55fad831d7f17ae4d1a0355827484789f1dc7f0a25badb741",
      "transactionType": "CREATE",
      "contractName": "DirectBurn721",
      "contractAddress": "0xb7f8bc63bbcad18155201308c8f3540b07f84f5e",
      "function": null,
      "arguments": [
        "0xa513E6E4b8f2a923D98304ec87F64353C4D5C853"
      ],
      "transaction": {
        "from": "0xf39fd6e51aad88f6f4ce6ab8827279cfffb92266",
        "gas": "0x3c106",
        "value": "0x0",
        "input": "0x60a034606d57601f6102f338819003918201601f19168301916001600160401b03831184841017607157808492602094604052833981010312606d57516001600160a01b03811690819003606d5760805260405161026d908161008682396080518181816048015260b20152f35b5f80fd5b634e487b7160e01b5f52604160045260245ffdfe6080806040526004361015610012575f80fd5b5f905f3560e01c908162c2a9451461007a5750637de1e53614610033575f80fd5b346100775780600319360112610077576040517f00000000000000000000000000000000000000000000000000000000000000006001600160a01b03168152602090f35b80fd5b82346101ee5760603660031901126101ee576004356001600160a01b03811692908390036101ee57602435906001604435036101f2577f00000000000000000000000000000000000000000000000000000000000000006001600160a01b031693843b156101ee576323b872dd60e01b82526004820152306024820152604481018290525f8160648183885af180156101e3576101ce575b5081928291826040516020810192630852cd8d60e31b845260248201526024815261013e604482610201565b51925af13d156101c9573d67ffffffffffffffff81116101b55760405190610170601f8201601f191660200183610201565b81528260203d92013e5b156101825780f35b60405162461bcd60e51b815260206004820152600b60248201526a109d5c9b8819985a5b195960aa1b6044820152606490fd5b634e487b7160e01b83526041600452602483fd5b61017a565b6101db9192505f90610201565b5f9083610112565b6040513d5f823e3d90fd5b5f80fd5b63162908e360e11b5f5260045ffd5b90601f8019910116810190811067ffffffffffffffff82111761022357604052565b634e487b7160e01b5f52604160045260245ffdfea2646970667358221220417567dd013a9f295e9eff18179c0de16790186b275443b9878091ed3e8ec19064736f6c634300081a0033000000000000000000000000a513e6e4b8f2a923d98304ec87f64353c4d5c853",
        "nonce": "0xb",
        "chainId": "0x539"
      },
      "additionalContracts": [],
      "isFixedGasLimit": false
    },
    {
      "hash": "0x580a41e42556f2dbb0aa59b71dae70a8b2ca9d3c2c3468a30a33a4be363afb9e",
      "transactionType": "CALL",
      "contractName": null,
      "contractAddress": "0xcf7ed3acca5a467e9e704c703e8d87f634fb0fc9",
      "function": "setAdapter(address,address)",
      "arguments": [
        "0xa513E6E4b8f2a923D98304ec87F64353C4D5C853",
        "0xB7f8BC63BbcaD18155201308C8f3540b07f84F5e"
      ],
      "transaction": {
        "from": "0xf39fd6e51aad88f6f4ce6ab8827279cfffb92266",
        "to": "0xcf7ed3acca5a467e9e704c703e8d87f634fb0fc9",
        "gas": "0x1130d",
        "value": "0x0",
        "input": "0xba59b4ca000000000000000000000000a513e6e4b8f2a923d98304ec87f64353c4d5c853000000000000000000000000b7f8bc63bbcad18155201308c8f3540b07f84f5e",
        "nonce": "0xc",
        "chainId": "0x539"
      },
      "additionalContracts": [],
      "isFixedGasLimit": false
    }
  ],
  "receipts": [
    {
      "status": "0x1",
      "cumulativeGasUsed": "0x2e340",
      "logs": [],
      "logsBloom": "0x00000000000000000000000000000000000000000000000000000000000000000000000000000000000000000000000000000000000000000000000000000000000000000000000000000000000000000000000000000000000000000000000000000000000000000000000000000000000000000000000000000000000000000000000000000000000000000000000000000000000000000000000000000000000000000000000000000000000000000000000000000000000000000000000000000000000000000000000000000000000000000000000000000000000000000000000000000000000000000000000000000000000000000000000000000000",
      "type": "0x2",
      "transactionHash": "0xcb633fef7f1c39b55fad831d7f17ae4d1a0355827484789f1dc7f0a25badb741",
      "transactionIndex": "0x0",
      "blockHash": "0x9f0b00959c33d3fc91d0397600258ee68176654c6a89b7e04874e8b168220ad6",
      "blockNumber": "0xa",
      "gasUsed": "0x2e340",
      "effectiveGasPrice": "0x130bb38a",
      "blobGasPrice": "0x1",
      "from": "0xf39fd6e51aad88f6f4ce6ab8827279cfffb92266",
      "to": null,
      "contractAddress": "0xb7f8bc63bbcad18155201308c8f3540b07f84f5e"
    },
    {
      "status": "0x1",
      "cumulativeGasUsed": "0xbc12",
      "logs": [
        {
          "address": "0xcf7ed3acca5a467e9e704c703e8d87f634fb0fc9",
          "topics": [
            "0xe5e39617beb2a298b9fa1c3928582d9a96ba7ef7c920acd1117d1d415568670a",
            "0x000000000000000000000000a513e6e4b8f2a923d98304ec87f64353c4d5c853",
            "0x000000000000000000000000b7f8bc63bbcad18155201308c8f3540b07f84f5e"
          ],
          "data": "0x",
          "blockHash": "0x156d4cfe3ff579d3633d6d75da4ae18256ed001f5cc541d721dc2e25fd0a575a",
          "blockNumber": "0xb",
          "blockTimestamp": "0x68ffbef6",
          "transactionHash": "0x580a41e42556f2dbb0aa59b71dae70a8b2ca9d3c2c3468a30a33a4be363afb9e",
          "transactionIndex": "0x0",
          "logIndex": "0x0",
          "removed": false
        }
      ],
      "logsBloom": "0x80000008000000000000000000400000000000000000000000000000000000000000000002000000000000002000080000000000000000000000000000000001000000000000000000000002000000000000000000000000000000000000000000000000000001000000000000000000000000000000000000000400000000000000000008000000000000000000000000000000000000000000000000000000000000000000000000000000000000000000000000000000000000000000000000000000000000000000000000000000000000000000000000000000000000000000000000000000000000000800000000000000000000000000000000000000",
      "type": "0x2",
      "transactionHash": "0x580a41e42556f2dbb0aa59b71dae70a8b2ca9d3c2c3468a30a33a4be363afb9e",
      "transactionIndex": "0x0",
      "blockHash": "0x156d4cfe3ff579d3633d6d75da4ae18256ed001f5cc541d721dc2e25fd0a575a",
      "blockNumber": "0xb",
      "gasUsed": "0xbc12",
      "effectiveGasPrice": "0x10b1ed90",
      "blobGasPrice": "0x1",
      "from": "0xf39fd6e51aad88f6f4ce6ab8827279cfffb92266",
      "to": "0xcf7ed3acca5a467e9e704c703e8d87f634fb0fc9",
      "contractAddress": null
    }
  ],
  "libraries": [],
  "pending": [],
  "returns": {},
  "timestamp": 1761591030,
  "chain": 1337,
  "commit": "f7faa07"
}