{
  "transactions": [
    {
      "hash": "0xd0e6daf22d79ef90309fb61873cbb18193322206157062596fb750a7632e7fc9",
      "transactionType": "CREATE",
      "contractName": "MockRandomness",
      "contractAddress": "0xc9fdf82eeffc7962a82521eaede932947175258a",
      "function": null,
      "arguments": null,
      "transaction": {
        "from": "0xf3a3d7f87ee5b778d3a50a6f7d8f16f7141bd132",
        "gas": "0x1db87",
        "value": "0x0",
        "input": "0x6080806040523460135760ba908160188239f35b5f80fdfe60806004361015600d575f80fd5b5f3560e01c63629374ab14601f575f80fd5b34608057602036600319011260805760208101600435815242604083015244606083015260608252608082019082821067ffffffffffffffff831117606c57602092826040525190208152f35b634e487b7160e01b5f52604160045260245ffd5b5f80fdfea26469706673582212200ab0def360d588332b18ffb26c6b60d85a4ca1dd84dcc7d5b1972d589d49092664736f6c634300081a0033",
        "nonce": "0x93",
        "chainId": "0xaa36a7"
      },
      "additionalContracts": [],
      "isFixedGasLimit": false
    },
    {
      "hash": "0xde636d814487e9c73e0299190fef8018737c80882078acb8681b0adbc1e4bffc",
      "transactionType": "CREATE",
      "contractName": "Pack1155Upgradeable",
      "contractAddress": "0x880c93fa488d12c772ae2e19f57ab0d63dba0b05",
      "function": null,
      "arguments": null,
      "transaction": {
        "from": "0xf3a3d7f87ee5b778d3a50a6f7d8f16f7141bd132",
        "gas": "0x392a5a",
        "value": "0x0",
        "input": "0x60a080604052346100e857306080527ff0c57e16840df040f15088dc2f81fe391c3923bec73e23a9662efc9c229c6a005460ff8160401c166100d9576002600160401b03196001600160401b03821601610073575b6040516132a190816100ed8239608051818181611104015261122c0152f35b6001600160401b0319166001600160401b039081177ff0c57e16840df040f15088dc2f81fe391c3923bec73e23a9662efc9c229c6a005581527fc7f505b2f371ae2175ee4913f4499e1f2633a7b5936321eed1cdaeb6115181d290602090a15f80610054565b63f92ee8a960e01b5f5260045ffd5b5f80fdfe60806040526004361015610011575f80fd5b5f3560e01c8062fdd58e1461031357806301ffc9a71461030e57806302fe53051461030957806305c4bb24146103045780630e89341c146102ff578063116191b6146102fa5780632a55205a146102f55780632eb2c2d6146102f057806333ea51a8146102eb57806335e19742146102e657806337da577c146102e15780633ccfd60b146102dc5780633d0c9cc4146102d75780633f4ba83a146102d25780634e1273f4146102cd5780634e5a781f146102c85780634f1ef286146102c357806352d1902d146102be5780635b8d02d7146102b95780635c975abb146102b45780636cf6a3fa146102af5780636ff58a0e146102aa578063704b6c02146102a5578063715018a6146102a0578063823745de1461029b5780638456cb5914610296578063869f7594146102915780638aa09daf1461028c5780638da5cb5b146102875780638f2fc60b1461028257806390646b4a1461027d57806391b7f5ed1461027857806392d62ccd14610273578063951cfff91461026e5780639d7f4ebf14610269578063a22cb46514610264578063ad3cb1cc1461025f578063afa93b481461025a578063b7b6717214610255578063bfa965e714610250578063c5bd92a81461024b578063e07275f714610246578063e163ac5d14610241578063e985e9c51461023c578063ec96074514610237578063f242432a14610232578063f2fde38b1461022d5763f851a44014610228575f80fd5b611f59565b611f30565b611e46565b611e29565b611dec565b611da4565b611ce7565b611c73565b611c56565b611c2e565b611b6b565b611b24565b611a67565b611a33565b6119f6565b6119a2565b611913565b61189c565b611778565b611744565b6116ea565b6116c0565b6115f0565b6115c8565b611561565b6114f8565b611481565b6112f7565b611299565b611271565b61121a565b6110c6565b610fd3565b610f14565b610e20565b610e05565b610da3565b610cfc565b610c57565b610b9e565b610b12565b6109c4565b61099c565b61089f565b6106bb565b610535565b610402565b610388565b600435906001600160a01b038216820361032e57565b5f80fd5b606435906001600160a01b038216820361032e57565b608435906001600160a01b038216820361032e57565b602435906001600160a01b038216820361032e57565b35906001600160a01b038216820361032e57565b3461032e57604036600319011261032e5760206103e76103a6610318565b6024355f527f88be536d5240c274a3b1d3a1be54482fd9caa294f08c62a7cde569f49a3c4500835260405f209060018060a01b03165f5260205260405f2090565b54604051908152f35b6001600160e01b031981160361032e57565b3461032e57602036600319011261032e5760043561041f816103f0565b63ffffffff60e01b1663152a902d60e11b8114908115610448575b506040519015158152602090f35b636cdb3d1360e11b81149150811561047a575b8115610469575b505f61043a565b6301ffc9a760e01b1490505f610462565b6303a24d0760e21b8114915061045b565b634e487b7160e01b5f52604160045260245ffd5b90601f801991011681019081106001600160401b038211176104c057604052565b61048b565b604051906104d460408361049f565b565b6001600160401b0381116104c057601f01601f191660200190565b81601f8201121561032e5760208135910161050b826104d6565b92610519604051948561049f565b8284528282011161032e57815f92602092838601378301015290565b3461032e57602036600319011261032e576004356001600160401b03811161032e576105659036906004016104f1565b5f805160206131ac833981519152546001600160a01b0316331415806106a6575b6106975780516001600160401b0381116104c0576105ba816105b55f8051602061324c8339815191525461213d565b612429565b602091601f8211600114610604576105e8925f91836105f9575b50508160011b915f199060031b1c19161790565b5f8051602061324c83398151915255005b015190505f806105d4565b5f8051602061324c8339815191525f52601f198216927ff429cb5e2ec84cbb765e76b31964a56ccde03e7a6122d6cc4afb19edc55edeed915f5b85811061067f57508360019510610667575b505050811b015f8051602061324c83398151915255005b01515f1960f88460031b161c191690555f8080610650565b9192602060018192868501518155019401920161063e565b636f0cab8b60e11b5f5260045ffd5b506006546001600160a01b0316331415610586565b3461032e5760a036600319011261032e576004356001600160401b03811161032e576106eb9036906004016104f1565b602435906044356106fa610332565b610702610348565b915f8051602061322c83398151915254946001600160401b0361074061073361072f8960ff9060401c1690565b1590565b976001600160401b031690565b168015908161085f575b6001149081610855575b15908161084c575b5061083d5761079f948661079660016001600160401b03195f8051602061322c8339815191525416175f8051602061322c83398151915255565b61080357611f81565b6107a557005b6107cf60ff60401b195f8051602061322c83398151915254165f8051602061322c83398151915255565b604051600181527fc7f505b2f371ae2175ee4913f4499e1f2633a7b5936321eed1cdaeb6115181d29080602081015b0390a1005b6108386801000000000000000060ff60401b195f8051602061322c8339815191525416175f8051602061322c83398151915255565b611f81565b63f92ee8a960e01b5f5260045ffd5b9050155f61075c565b303b159150610754565b87915061074a565b805180835260209291819084018484015e5f828201840152601f01601f1916010190565b90602061089c928181520190610867565b90565b3461032e57602036600319011261032e576040515f5f8051602061324c833981519152546108cc8161213d565b808452906001811690811561096e5750600114610904575b610900836108f48185038261049f565b6040519182918261088b565b0390f35b5f8051602061324c8339815191525f9081527ff429cb5e2ec84cbb765e76b31964a56ccde03e7a6122d6cc4afb19edc55edeed939250905b808210610954575090915081016020016108f46108e4565b91926001816020925483858801015201910190929161093c565b60ff191660208086019190915291151560051b840190910191506108f490506108e4565b5f91031261032e57565b3461032e575f36600319011261032e576005546040516001600160a01b039091168152602090f35b3461032e57604036600319011261032e576004355f9081527fdaedc9ab023613a7caf35e703657e986ccfad7e3eb0af93a2853f8d65dd86b0160205260409020546001600160a01b038116906024359060a01c8215610a67575b6001600160601b031690818102918183041490151715610a6257610a45906127109061219d565b604080516001600160a01b03939093168352602083019190915290f35b612175565b507fdaedc9ab023613a7caf35e703657e986ccfad7e3eb0af93a2853f8d65dd86b00546001600160a01b038116925060a01c610a1e565b6001600160401b0381116104c05760051b60200190565b9080601f8301121561032e578135610acc81610a9e565b92610ada604051948561049f565b81845260208085019260051b82010192831161032e57602001905b828210610b025750505090565b8135815260209182019101610af5565b3461032e5760a036600319011261032e57610b2b610318565b610b3361035e565b906044356001600160401b03811161032e57610b53903690600401610ab5565b6064356001600160401b03811161032e57610b72903690600401610ab5565b90608435936001600160401b03851161032e57610b96610b9c9536906004016104f1565b936121ac565b005b3461032e57602036600319011261032e57610bb7610318565b610bbf6124bc565b6001600160a01b03168015610c1157600280546001600160a01b0319811683179091556001600160a01b03167fba2be5e898fed1646bc0814dee1cc9a2aee98f51fced7d5fc4699c47d99077535f80a3005b6305ca16c960e51b5f5260045ffd5b905f905b60038210610c3157505050565b6020806001928551815201930191019091610c24565b6060810192916104d49190610c20565b3461032e57602036600319011261032e57610c70610318565b6060604051610c7f828261049f565b369037610c8a6124ef565b610c92612527565b6005546001600160a01b03163303610ced576001600160a01b0381165f908152600a60205260409020805460ff1916905561090090610cd0906125a7565b60015f8051602061320c8339815191525560405191829182610c47565b63ec76af1360e01b5f5260045ffd5b3461032e57604036600319011261032e576004356024355f805160206131ac833981519152546001600160a01b031633141580610d8e575b610697575f54821015610d7b5760207f5af22a09e6677efe5d29d19bf6a17f71d28caad7707022d8eab337320df9f50d91835f52600882528060405f2055604051908152a2005b50635d19737360e01b5f5260045260245ffd5b506006546001600160a01b0316331415610d34565b3461032e575f36600319011261032e57610dbb6124ef565b610dc36124bc565b5f8080804760018060a01b03600254165af1610ddd612213565b5015610df65760015f8051602061320c83398151915255005b6327fcd9d160e01b5f5260045ffd5b3461032e575f36600319011261032e57602060405160038152f35b3461032e575f36600319011261032e575f805160206131ac833981519152546001600160a01b031633141580610ebb575b610697575f805160206131ec8339815191525460ff811615610eac5760ff19165f805160206131ec833981519152557f5db9ee0a495bf2e6ff9c91a7834c1ba4fdd244a5e8aa4e537bd38aeae4b073aa6020604051338152a1005b638dfc202b60e01b5f5260045ffd5b506006546001600160a01b0316331415610e51565b90602080835192838152019201905f5b818110610eed5750505090565b8251845260209384019390920191600101610ee0565b90602061089c928181520190610ed0565b3461032e57604036600319011261032e576004356001600160401b03811161032e573660238201121561032e57806004013590610f5082610a9e565b91610f5e604051938461049f565b8083526024602084019160051b8301019136831161032e57602401905b828210610fbb57836024356001600160401b03811161032e5761090091610fa9610faf923690600401610ab5565b906122dc565b60405191829182610f03565b60208091610fc884610374565b815201910190610f7b565b5f36600319011261032e576060604051610fed828261049f565b369037610ff86124ef565b611000612527565b6001548034106110ad57335f908152600a602052604090206110289061072f905b5460ff1690565b61108f576007545f906001600160a01b031661109e575b1561108f57335f908152600a60205260409020611061905b805460ff19169055565b61090061106d336125a7565b61108360015f8051602061320c83398151915255565b60405191829182610c47565b636ce8373b60e11b5f5260045ffd5b506110a83361282b565b61103f565b63b99e2ab760e01b5f526004523460245260445ffd5b5ffd5b604036600319011261032e576110da610318565b6024356001600160401b03811161032e576110f99036906004016104f1565b906001600160a01b037f0000000000000000000000000000000000000000000000000000000000000000163081149081156111f8575b506111e95761113c6124bc565b6040516352d1902d60e01b8152916020836004816001600160a01b0386165afa5f93816111b8575b5061118557634c9c8ce360e01b5f526001600160a01b03821660045260245ffd5b905f805160206131cc83398151915283036111a457610b9c9250612e2c565b632a87526960e21b5f52600483905260245ffd5b6111db91945060203d6020116111e2575b6111d3818361049f565b8101906128d0565b925f611164565b503d6111c9565b63703e46dd60e11b5f5260045ffd5b5f805160206131cc833981519152546001600160a01b0316141590505f61112f565b3461032e575f36600319011261032e577f00000000000000000000000000000000000000000000000000000000000000006001600160a01b031630036111e95760206040515f805160206131cc8339815191528152f35b3461032e575f36600319011261032e576002546040516001600160a01b039091168152602090f35b3461032e575f36600319011261032e57602060ff5f805160206131ec83398151915254166040519015158152f35b9181601f8401121561032e578235916001600160401b03831161032e576020808501948460051b01011161032e57565b3461032e57604036600319011261032e576004356001600160401b03811161032e576113279036906004016112c7565b906024356001600160401b03811161032e576113479036906004016112c7565b9260018060a01b035f805160206131ac83398151915254163314158061146c575b61069757838103611435575f5b81811061137e57005b611389818386612386565b355f54111561141457806113a06001928786612386565b356113be6113af838689612386565b355f52600860205260405f2090565b556113ca818487612386565b357f5af22a09e6677efe5d29d19bf6a17f71d28caad7707022d8eab337320df9f50d61140b6113fa848a89612386565b604051903581529081906020820190565b0390a201611375565b611422906110c39285612386565b635d19737360e01b5f5235600452602490565b60405162461bcd60e51b815260206004820152600f60248201526e098cadccee8d040dad2e6dac2e8c6d608b1b6044820152606490fd5b506006546001600160a01b0316331415611368565b3461032e57602036600319011261032e5761149a610318565b6114a26124bc565b6001600160a01b031680156114e957600780546001600160a01b031916821790557f8780d2c226f5f58eea554395406a0e3917b555f805586f2f00b5795bee023c605f80a2005b633982f16560e01b5f5260045ffd5b3461032e57602036600319011261032e57611511610318565b6115196124bc565b600680546001600160a01b039283166001600160a01b0319821681179092559091167f101b8081ff3b56bbf45deb824d86a3b0fd38b7e3dd42421105cf8abe9106db0b5f80a3005b3461032e575f36600319011261032e576115796124bc565b5f805160206131ac83398151915280546001600160a01b031981169091555f906001600160a01b03167f8be0079c531659141344cd1fd0a4f28419497f9722a3daafe3b4186f6b6457e08280a3005b3461032e575f36600319011261032e576007546040516001600160a01b039091168152602090f35b3461032e575f36600319011261032e575f805160206131ac833981519152546001600160a01b03163314158061167e575b6106975761162d612527565b600160ff195f805160206131ec8339815191525416175f805160206131ec833981519152557f62e78cea01bee320cd4e420270b5ea74000d11b0c9f74754ebdbfc544b05a2586020604051338152a1005b506006546001600160a01b0316331415611621565b5f527f88be536d5240c274a3b1d3a1be54482fd9caa294f08c62a7cde569f49a3c450060205260405f2090565b3461032e57602036600319011261032e576004355f526008602052602060405f2054604051908152f35b3461032e575f36600319011261032e575f805160206131ac833981519152546001600160a01b03163314158061172f575b6106975761172a600454612396565b600455005b506006546001600160a01b031633141561171b565b3461032e575f36600319011261032e575f805160206131ac833981519152546040516001600160a01b039091168152602090f35b3461032e57604036600319011261032e57611791610318565b602435906001600160601b03821680830361032e575f805160206131ac833981519152546001600160a01b031633141580611887575b61069757612710811161186f57506001600160a01b0381161561185c57611815610b9c926118056117f66104c5565b6001600160a01b039094168452565b6001600160601b03166020830152565b80516020919091015160a01b6001600160a01b0319166001600160a01b0391909116177fdaedc9ab023613a7caf35e703657e986ccfad7e3eb0af93a2853f8d65dd86b0055565b635b6cc80560e11b5f525f60045260245ffd5b636f483d0960e01b5f5260045261271060245260445ffd5b506006546001600160a01b03163314156117c7565b3461032e57602036600319011261032e576118b5610318565b6118bd6124bc565b6001600160a01b0316801561190457600580546001600160a01b031916821790557ff01fde40131396fd2f417fae830fea338256f1ecc896f2fa4f0354fd4554712c5f80a2005b63fc9dfe8560e01b5f5260045ffd5b3461032e57602036600319011261032e5760043560018060a01b035f805160206131ac83398151915254163314158061198d575b6106975760018054908290556040805191825260208201929092527f945c1c4e99aa89f648fbfe3df471b916f719e16d960fcec0737d4d56bd69683891819081016107fe565b506006546001600160a01b0316331415611947565b3461032e575f36600319011261032e5760205f54604051908152f35b6001600160a01b03165f9081527f88be536d5240c274a3b1d3a1be54482fd9caa294f08c62a7cde569f49a3c45016020526040902090565b3461032e57602036600319011261032e576001600160a01b03611a17610318565b165f52600a602052602060ff60405f2054166040519015158152f35b3461032e57602036600319011261032e576004355f526009602052602060405f2054604051908152f35b8015150361032e57565b3461032e57604036600319011261032e57611a80610318565b602435611a8c81611a5d565b6001600160a01b038216918215611afe57611abf90611aaa336119be565b9060018060a01b03165f5260205260405f2090565b60ff1981541660ff8315151617905560405190151581527f17307eab39ab6107e8899845ad3d59bd9653f200f220920489ca2b5937696c3160203392a3005b62ced3e160e81b5f525f60045260245ffd5b60405190611b1f60208361049f565b5f8252565b3461032e575f36600319011261032e57610900604051611b4560408261049f565b60058152640352e302e360dc1b6020820152604051918291602083526020830190610867565b602036600319011261032e57611b7f610318565b6060604051611b8e828261049f565b369037611b996124ef565b611ba1612527565b6001548034106110ad57506001600160a01b0381165f908152600a60205260409020611bcc90611021565b611bdd575b61106d610900916125a7565b6007546001600160a01b03161561108f57611bfa61072f8261282b565b61108f576001600160a01b0381165f908152600a602052604090206109009161106d91611c2690611057565b915050611bd1565b3461032e575f36600319011261032e576003546040516001600160a01b039091168152602090f35b3461032e575f36600319011261032e576020600154604051908152f35b3461032e57602036600319011261032e57611c8c610318565b6060604051611c9b828261049f565b3690376001600160a01b03165f908152600b6020526040808220905191825b60038210611cd1576109008461108360608261049f565b6001602081928554815201930191019091611cba565b3461032e57602036600319011261032e57611d00610318565b5f805160206131ac833981519152546001600160a01b031633141580611d7b575b610697576001600160a01b03168015611d6c57600380546001600160a01b031916821790557f74addaee1ef464cec144b43b556420b9bde8415ac400fd6e2fb417bd45bf2aaa5f80a2005b63a35d247f60e01b5f5260045ffd5b506006546001600160a01b0316331415611d21565b634e487b7160e01b5f52603260045260245ffd5b3461032e57604036600319011261032e57611dbd610318565b6001600160a01b03165f908152600b60205260409020602435600381101561032e576020910154604051908152f35b3461032e57604036600319011261032e57602060ff611e1d611e0c610318565b611aaa611e1761035e565b916119be565b54166040519015158152f35b3461032e575f36600319011261032e576020600454604051908152f35b3461032e5760a036600319011261032e57611e5f610318565b611e6761035e565b6064356044356084356001600160401b03811161032e57611e8c9036906004016104f1565b926001600160a01b0385163381141580611f1f575b611f09576001600160a01b03821615611ef65715611ee457610b9c946040519260018452602084015260408301936001855260608401526080830160405261290a565b626a0d4560e21b5f525f60045260245ffd5b632bfa23e760e11b5f525f60045260245ffd5b63711bec9160e11b5f523360045260245260445ffd5b50611f2a33876123a4565b15611ea1565b3461032e57602036600319011261032e57610b9c611f4c610318565b611f546124bc565b6123b8565b3461032e575f36600319011261032e576006546040516001600160a01b039091168152602090f35b9493909291906001600160a01b03831615610c11576001600160a01b0316928315611d6c57611fae6128df565b611fb66128df565b85516001600160401b0381116104c057611fe1816105b55f8051602061324c8339815191525461213d565b6020601f8211600114612096579161201c8261207996959361205c956104d49a9b5f926105f95750508160011b915f199060031b1c19161790565b5f8051602061324c833981519152555b6120346128df565b61203d33612485565b6120456128df565b61204d612499565b6120556128df565b5f55600155565b60018060a01b03166001600160601b0360a01b6002541617600255565b60018060a01b03166001600160601b0360a01b6003541617600355565b5f8051602061324c8339815191525f52601f198216977ff429cb5e2ec84cbb765e76b31964a56ccde03e7a6122d6cc4afb19edc55edeed985f5b8181106121255750926104d4989961205c9593600193836120799a99971061210d575b505050811b015f8051602061324c8339815191525561202c565b01515f1960f88460031b161c191690555f80806120f3565b838301518b556001909a0199602093840193016120d0565b90600182811c9216801561216b575b602083101461215757565b634e487b7160e01b5f52602260045260245ffd5b91607f169161214c565b634e487b7160e01b5f52601160045260245ffd5b634e487b7160e01b5f52601260045260245ffd5b81156121a7570490565b612189565b939291906001600160a01b03851633811415806121e5575b611f09576001600160a01b03821615611ef65715611ee4576104d49461290a565b5060ff6121f533611aaa896119be565b5416156121c4565b6040519061220c60608361049f565b6060368337565b3d1561223d573d90612224826104d6565b91612232604051938461049f565b82523d5f602084013e565b606090565b60405160809190612253838261049f565b6003815291601f1901366020840137565b9061226e82610a9e565b61227b604051918261049f565b828152809261228c601f1991610a9e565b0190602036910137565b8051156122a35760200190565b611d90565b8051600110156122a35760400190565b8051600210156122a35760600190565b80518210156122a35760209160051b010190565b919091805183518082036123715750506122f68151612264565b905f5b815181101561236a578061235860019260051b602080828701015191890101515f527f88be536d5240c274a3b1d3a1be54482fd9caa294f08c62a7cde569f49a3c450060205260405f209060018060a01b03165f5260205260405f2090565b5461236382866122c8565b52016122f9565b5090925050565b635b05999160e01b5f5260045260245260445ffd5b91908110156122a35760051b0190565b5f198114610a625760010190565b60ff91611aaa6123b3926119be565b541690565b6001600160a01b03168015612416575f805160206131ac83398151915280546001600160a01b0319811683179091556001600160a01b03167f8be0079c531659141344cd1fd0a4f28419497f9722a3daafe3b4186f6b6457e05f80a3565b631e4fbdf760e01b5f525f60045260245ffd5b601f8111612435575050565b5f8051602061324c8339815191525f5260205f20906020601f840160051c8301931061247b575b601f0160051c01905b818110612470575050565b5f8155600101612465565b909150819061245c565b6104d4906124916128df565b611f546128df565b6124a16128df565b6124a96128df565b60015f8051602061320c83398151915255565b5f805160206131ac833981519152546001600160a01b031633036124dc57565b63118cdaa760e01b5f523360045260245ffd5b60025f8051602061320c83398151915254146125185760025f8051602061320c83398151915255565b633ee5aeb560e01b5f5260045ffd5b60ff5f805160206131ec833981519152541661253f57565b63d93c066560e01b5f5260045ffd5b9060038110156122a35760051b0190565b905f5b6003811061256f57505050565b600190602083519301928185015501612562565b6040513d5f823e3d90fd5b606090939291936125a3816080810196610c20565b0152565b906125b06121fd565b506001600160a01b0382165f908152600a602052604090206125d190611021565b61108f576004545f8052600960209081527fec8156718a8372b1db44bb411437d0870f3e3790d4a08526d024ce1b0b668f6b546040516bffffffffffffffffffffffff1933606090811b821694830194855287901b166034820152426048820152446068820152608881019390935260a8830152612668916126608160c881015b03601f19810183528261049f565b519020612aef565b916126d9612674612242565b61267c612242565b855161268783612296565b526020860151612696836122a8565b5260408601516126a5836122b8565b5260016126b182612296565b5260016126bd826122a8565b5260016126c9826122b8565b526126d2611b10565b9184612d21565b6001600160a01b0381165f908152600b602052604090206126fb90849061255f565b6007546001600160a01b0316806127ac575b506001600160a01b0381165f908152600a6020526040902061273690805460ff19166001179055565b5f805260096020527f9eb0e6fdb2c176ee2ee994d647e138b3815cde20adfee97520da34efea220a966127a761278e7fec8156718a8372b1db44bb411437d0870f3e3790d4a08526d024ce1b0b668f6b546003900490565b6040516001600160a01b0390941693918291878361258e565b0390a2565b6127c6906001600160a01b03165b6001600160a01b031690565b803b1561032e5760405163b878686560e01b81526001600160a01b0383166004820152905f908290602490829084905af11561270d578061280a5f6128109361049f565b80610992565b5f61270d565b9081602091031261032e575161089c81611a5d565b6007546001600160a01b031680156128ca5761288391602091612856906001600160a01b03166127ba565b604051630474d2ef60e21b81526001600160a01b0390921660048301529092839190829081906024820190565b03915afa5f9181612899575b5061089c57505f90565b6128bc91925060203d6020116128c3575b6128b4818361049f565b810190612816565b905f61288f565b503d6128aa565b50505f90565b9081602091031261032e575190565b60ff5f8051602061322c8339815191525460401c16156128fb57565b631afcd79f60e31b5f5260045ffd5b9493929091938451825190818103612ad05750506001600160a01b038681169586151595918516801515939192905f5b8451811015612a03578060051b90898988602080868b010151958c01015192612992575b93600194612970575b5050500161293a565b61298891611aaa61298092611693565b918254612ece565b90555f8981612967565b505090916129a38d611aaa83611693565b548281106129cc578291898f6129c3600197968f950391611aaa85611693565b5590945061295e565b6040516303dee4c560e01b81526001600160a01b038f16600482015260248101919091526044810183905260648101829052608490fd5b5091989593929790965060018851145f14612a965760208881015186820151604080519283529282015233917fc3d58168c5ae7397731d063d5bbf3d657854427343f4c083240f7aacaa2d0f6291a45b612a5f575b5050505050565b8451600103612a8557602080612a7b9601519201519233613097565b5f80808080612a58565b612a9194919233612f68565b612a7b565b6040517f4a39dc06d4c0dbc64b70af90fd698a233a518aa5d07e595d983b8c0526c8f7fb339180612ac8898d83612edb565b0390a4612a53565b635b05999160e01b5f5260045260245260445ffd5b81156121a7570690565b90612af86121fd565b915f5b60038110612b07575050565b6003545f919082908190612b23906001600160a01b03166127ba565b5f54905b60648310612bd9575b505050612b45835f52600860205260405f2090565b54151580612bab575b612b9757612b8857612b7682600193612b67848961254e565b525f52600960205260405f2090565b612b808154612396565b905501612afb565b6319419ded60e11b5f5260045ffd5b63173c7e1160e11b5f52600483905260245ffd5b50612bbe835f52600960205260405f2090565b54612bd1845f52600860205260405f2090565b541115612b4e565b90919450612c2b602087604051612c09816126528b8b878401968791606093918352602083015260408201520190565b5190206040518093819263629374ab60e01b8352600483019190602083019252565b0381855afa908115612d1c57612c4a9184915f91612cfe575b50612ae5565b94612c5d865f52600860205260405f2090565b54158015612cd1575b612c7b575b612c7490612396565b9190612b27565b5f9350835b858110612c93575b5083612c6b57612b30565b86612ca7828c9a989b94959697999c61254e565b5114612cbf5760010198959392919097949698612c80565b5096939597945091906001925f612c88565b50612ce4865f52600960205260405f2090565b54612cf7875f52600860205260405f2090565b5411612c66565b612d16915060203d81116111e2576111d3818361049f565b5f612c44565b612583565b6001600160a01b038116939091908415611ef6578151845190818103612ad05750505f5b8251811015612d7a578060019160051b612d7261298087611aaa602080868b010151958c01015194611693565b905501612d45565b5092919360018251145f14612df1576020828101518482015160408051928352928201525f9133917fc3d58168c5ae7397731d063d5bbf3d657854427343f4c083240f7aacaa2d0f629190a45b8051600103612de657906020806104d495930151910151915f33613097565b6104d4935f33612f68565b5f6040517f4a39dc06d4c0dbc64b70af90fd698a233a518aa5d07e595d983b8c0526c8f7fb339180612e24888883612edb565b0390a4612dc7565b90813b15612ead575f805160206131cc83398151915280546001600160a01b0319166001600160a01b0384169081179091557fbc7cd75a20ee27fd9adebab32041f755214dbc6bffa90cc0225b39da2e5c2d3b5f80a2805115612e9557612e9291613135565b50565b505034612e9e57565b63b398979f60e01b5f5260045ffd5b50634c9c8ce360e01b5f9081526001600160a01b0391909116600452602490fd5b91908201809211610a6257565b9091612ef261089c93604084526040840190610ed0565b916020818403910152610ed0565b9081602091031261032e575161089c816103f0565b6001600160a01b0391821681529116602082015260a06040820181905261089c9491939192612f5a9291612f4c9190860190610ed0565b908482036060860152610ed0565b916080818403910152610867565b9091949293853b612f7c575b505050505050565b602093612f9e91604051968795869563bc197c8160e01b875260048701612f15565b03815f6001600160a01b0387165af15f918161302d575b50612fef5750612fc3612213565b8051919082612fe857632bfa23e760e11b5f526001600160a01b03821660045260245ffd5b9050602001fd5b6001600160e01b0319166343e6837f60e01b0161301257505f8080808080612f74565b632bfa23e760e11b5f526001600160a01b031660045260245ffd5b61305091925060203d602011613057575b613048818361049f565b810190612f00565b905f612fb5565b503d61303e565b6001600160a01b039182168152911660208201526040810191909152606081019190915260a06080820181905261089c92910190610867565b9091949293853b6130aa57505050505050565b6020936130cc91604051968795869563f23a6e6160e01b87526004870161305e565b03815f6001600160a01b0387165af15f9181613114575b506130f15750612fc3612213565b6001600160e01b031916630dc5919f60e01b0161301257505f8080808080612f74565b61312e91925060203d60201161305757613048818361049f565b905f6130e3565b5f8061089c93602081519101845af461314c612213565b9190613171575080511561316257805190602001fd5b63d6bda27560e01b5f5260045ffd5b815115806131a2575b613182575090565b639996b31560e01b5f9081526001600160a01b0391909116600452602490fd5b50803b1561317a56fe9016d09d72d40fdae2fd8ceac6b6234c7706214fd39c1cd1e609a0528c199300360894a13ba1a3210667c828492db98dca3e2076cc3735a920a3ca505d382bbccd5ed15c6e187e77e9aee88184c21f4f2182ab5827cb3b7e07fbedcd63f033009b779b17422d0df92223018b32b4d1fa46e071723d6817e2486d003becc55f00f0c57e16840df040f15088dc2f81fe391c3923bec73e23a9662efc9c229c6a0088be536d5240c274a3b1d3a1be54482fd9caa294f08c62a7cde569f49a3c4502a2646970667358221220a969202eda1f0ff30d443ba1b7ef63638fa877eb6221435c4e0a276de139094b64736f6c634300081a0033",
        "nonce": "0x94",
        "chainId": "0xaa36a7"
      },
      "additionalContracts": [],
      "isFixedGasLimit": false
    },
    {
      "hash": "0x78e46e9337b9668cec0004c0bfac3dada7aa024191609099c9c1d781a205dde3",
      "transactionType": "CREATE",
      "contractName": "ERC1967Proxy",
      "contractAddress": "0xa96993515237fc537ab1250052dc786488a791ee",
      "function": null,
      "arguments": [
        "0x880C93fA488D12c772aE2E19f57aB0D63Dba0b05",
        "0x05c4bb2400000000000000000000000000000000000000000000000000000000000000a0000000000000000000000000000000000000000000000000000000000000000f000000000000000000000000000000000000000000000000006a94d74f430000000000000000000000000000f3a3d7f87ee5b778d3a50a6f7d8f16f7141bd132000000000000000000000000c9fdf82eeffc7962a82521eaede932947175258a0000000000000000000000000000000000000000000000000000000000000043697066733a2f2f626166796265696179636f78327968746a323364616169636579327666783436346868697079757866786973636d71756a6a6e377874653732736d2f0000000000000000000000000000000000000000000000000000000000"
      ],
      "transaction": {
        "from": "0xf3a3d7f87ee5b778d3a50a6f7d8f16f7141bd132",
        "gas": "0x759e7",
        "value": "0x0",
        "input": "0x608060405261029d8038038061001481610168565b92833981016040828203126101645781516001600160a01b03811692909190838303610164576020810151906001600160401b03821161016457019281601f8501121561016457835161006e610069826101a1565b610168565b9481865260208601936020838301011161016457815f926020809301865e86010152823b15610152577f360894a13ba1a3210667c828492db98dca3e2076cc3735a920a3ca505d382bbc80546001600160a01b031916821790557fbc7cd75a20ee27fd9adebab32041f755214dbc6bffa90cc0225b39da2e5c2d3b5f80a282511561013a575f8091610122945190845af43d15610132573d91610113610069846101a1565b9283523d5f602085013e6101bc565b505b6040516082908161021b8239f35b6060916101bc565b50505034156101245763b398979f60e01b5f5260045ffd5b634c9c8ce360e01b5f5260045260245ffd5b5f80fd5b6040519190601f01601f191682016001600160401b0381118382101761018d57604052565b634e487b7160e01b5f52604160045260245ffd5b6001600160401b03811161018d57601f01601f191660200190565b906101e057508051156101d157805190602001fd5b63d6bda27560e01b5f5260045ffd5b81511580610211575b6101f1575090565b639996b31560e01b5f9081526001600160a01b0391909116600452602490fd5b50803b156101e956fe60806040527f360894a13ba1a3210667c828492db98dca3e2076cc3735a920a3ca505d382bbc545f9081906001600160a01b0316368280378136915af43d5f803e156048573d5ff35b3d5ffdfea2646970667358221220693bb7dc96aac2aabb447fe996be9b66860ca746e4376ab44dd74a3f63b5a65764736f6c634300081a0033000000000000000000000000880c93fa488d12c772ae2e19f57ab0d63dba0b050000000000000000000000000000000000000000000000000000000000000040000000000000000000000000000000000000000000000000000000000000012405c4bb2400000000000000000000000000000000000000000000000000000000000000a0000000000000000000000000000000000000000000000000000000000000000f000000000000000000000000000000000000000000000000006a94d74f430000000000000000000000000000f3a3d7f87ee5b778d3a50a6f7d8f16f7141bd132000000000000000000000000c9fdf82eeffc7962a82521eaede932947175258a0000000000000000000000000000000000000000000000000000000000000043697066733a2f2f626166796265696179636f78327968746a323364616169636579327666783436346868697079757866786973636d71756a6a6e377874653732736d2f000000000000000000000000000000000000000000000000000000000000000000000000000000000000000000000000000000000000000000",
        "nonce": "0x95",
        "chainId": "0xaa36a7"
      },
      "additionalContracts": [],
      "isFixedGasLimit": false
    },
    {
      "hash": "0x21a84a69d007a41b4a85594cd22a0a021252b9816df174085c49bf7cf07bdd33",
      "transactionType": "CREATE",
      "contractName": "Fortune721Upgradeable",
      "contractAddress": "0x45e7508a8f02db6d80814eab66ac28e88a0296cc",
      "function": null,
      "arguments": null,
      "transaction": {
        "from": "0xf3a3d7f87ee5b778d3a50a6f7d8f16f7141bd132",
        "gas": "0x48f341",
        "value": "0x0",
        "input": "0x60a080604052346100e857306080527ff0c57e16840df040f15088dc2f81fe391c3923bec73e23a9662efc9c229c6a005460ff8160401c166100d9576002600160401b03196001600160401b03821601610073575b60405161410190816100ed82396080518181816126a701526127380152f35b6001600160401b0319166001600160401b039081177ff0c57e16840df040f15088dc2f81fe391c3923bec73e23a9662efc9c229c6a005581527fc7f505b2f371ae2175ee4913f4499e1f2633a7b5936321eed1cdaeb6115181d290602090a15f80610054565b63f92ee8a960e01b5f5260045ffd5b5f80fdfe6080806040526004361015610012575f80fd5b5f3560e01c90816301ffc9a71461329b5750806306fdde03146131de578063081812fc14613195578063095ea7b3146130a957806311d34bbc1461306c578063135bee201461302a57806318160ddd1461300e57806323b872dd14612ff7578063293ef0bd14612ce85780632a55205a14612c1f5780632bfbb3e214612b0257806333ea51a814612a805780633907794314612a095780633ccfd60b146129a75780633f4ba83a146128f757806342842e0e146128c85780634f1ef286146126fb57806352d1902d146126955780635b8d02d71461266d5780635c975abb1461263f578063608e0271146125de5780636286ac2a1461253a5780636352211e1461250a5780636630583d146124e2578063704b6c021461247957806370a082311461242a578063715018a6146123c357806376973f0d146123315780637e744a76146123165780638456cb59146122735780638c4c9885146120db5780638da5cb5b146120a75780638f2fc60b14611f9457806390e9546314611f7757806395d89b4114611eba5780639e25b7c014611e3c578063a22cb46514611da4578063ad3cb1cc14611d5d578063b4b65ea1146116f0578063b878686514611672578063b88d4fde14611618578063b97623dc146114a0578063bea489ef146113d5578063c87b56dd1461095a578063e163ac5d14610912578063e985e9c5146108c6578063f2fde38b1461089b578063f62d1888146102635763f851a44014610237575f80fd5b3461025f575f36600319011261025f576005546040516001600160a01b039091168152602090f35b5f80fd5b3461025f57602036600319011261025f576004356001600160401b03811161025f573660238201121561025f576102a49036906024816004013591016135a6565b5f8051602061408c833981519152549060ff8260401c1615916001600160401b03811680159081610893575b6001149081610889575b159081610880575b506108715767ffffffffffffffff1981166001175f8051602061408c8339815191525582610845575b50604080519261031b8285613433565b600f84526e42657a6d69617220466f7274756e6560881b60208501528151936103448386613433565b6007855266464f5254554e4560c81b6020860152610360613f02565b610368613f02565b8051906001600160401b038211610646576103905f80516020613fcc833981519152546133e0565b601f81116107eb575b50602090601f8311600114610750576103c992915f9183610745575b50508160011b915f199060031b1c19161790565b5f80516020613fcc833981519152555b83516001600160401b038111610646576104005f805160206140ac833981519152546133e0565b601f81116106e0575b50602094601f82116001146106655761043b9293949582915f9261065a5750508160011b915f199060031b1c19161790565b5f805160206140ac833981519152555b610453613f02565b61045b613f02565b610463613f02565b61046c336139af565b610474613f02565b61047c613f02565b610484613f02565b60015f8051602061404c8339815191525561049d613f02565b82516001600160401b038111610646576104c1816104bc6002546133e0565b613864565b6020601f82116001146105d85781906104f09394955f926105cd5750508160011b915f199060031b1c19161790565b6002555b6104ff6003546133e0565b601f81116105a2575b505f600355815160208101904282523360601b848201526034815261052e605482613433565b519020600155600480546001600160a01b0319163317905561054c57005b60207fc7f505b2f371ae2175ee4913f4499e1f2633a7b5936321eed1cdaeb6115181d29168ff0000000000000000195f8051602061408c83398151915254165f8051602061408c833981519152555160018152a1005b60035f526105c790601f0160051c5f80516020613fac8339815191529081019061384e565b82610508565b0151905085806103b5565b601f1982169060025f525f80516020613f8c833981519152915f5b81811061062e57509583600195969710610616575b505050811b016002556104f4565b01515f1960f88460031b161c19169055848080610608565b9192602060018192868b0151815501940192016105f3565b634e487b7160e01b5f52604160045260245ffd5b0151905086806103b5565b601f198216955f805160206140ac8339815191525f52805f20915f5b8881106106c8575083600195969798106106b0575b505050811b015f805160206140ac8339815191525561044b565b01515f1960f88460031b161c19169055858080610696565b91926020600181928685015181550194019201610681565b5f805160206140ac8339815191525f52610735907ff4bad0a69248f59680a4f2b3000328cec71a413447c96781cfe5996daa8c456e601f840160051c8101916020851061073b575b601f0160051c019061384e565b85610409565b9091508190610728565b0151905087806103b5565b90601f198316915f80516020613fcc8339815191525f527f37c58c799b6609234b945e882912ee9ad34948a1dfaa20a97485e1a7752bbf81925f5b8181106107d357509084600195949392106107bb575b505050811b015f80516020613fcc833981519152556103d9565b01515f1960f88460031b161c191690558680806107a1565b9293602060018192878601518155019501930161078b565b5f80516020613fcc8339815191525f5261083f907f37c58c799b6609234b945e882912ee9ad34948a1dfaa20a97485e1a7752bbf81601f850160051c8101916020861061073b57601f0160051c019061384e565b86610399565b68ffffffffffffffffff191668010000000000000001175f8051602061408c833981519152558261030b565b63f92ee8a960e01b5f5260045ffd5b905015846102e2565b303b1591506102da565b8491506102d0565b3461025f57602036600319011261025f576108c46108b7613344565b6108bf613a4f565b6139af565b005b3461025f57604036600319011261025f576108df613344565b6108f06108ea61335a565b916133a8565b9060018060a01b03165f52602052602060ff60405f2054166040519015158152f35b3461025f57604036600319011261025f5761092b613344565b6001600160a01b03165f908152600960205260409020602435600381101561025f576020910154604051908152f35b3461025f57602036600319011261025f5760043561097781613a20565b50805f52600860205260405f206040519061099182613418565b8054808352600182015491602084019283526002810154604085019081526003820154906060860191825260056004840154936080880194855201549360a087019485525f52600760205260405f2060015f5260205260405f2082515f526020526109fe60405f20613454565b85515f52600760205260405f2060025f5260205260405f2084515f52602052610a2960405f20613454565b9782515f52600760205260405f2060035f5260205260405f2086515f52602052610a5560405f20613454565b60035490610a62826133e0565b156113ba576040519a7f3c646566733e3c7374796c653e40666f6e742d666163657b666f6e742d66616d60208d0152740d2d8f2744486eae6e8deda4476e6e4c674eae4d85605b1b60408d01525f600354610abc816133e0565b906001811690811561138c5750600114611345575b509b610b0560128260209d9e9f71149dbe9e17b9ba3cb6329f1e17b232b3399f60711b815203600d19810184520182613433565b925b610b10816133e0565b1561133757610b1d61394d565b955b610b28826133e0565b1561132c57610b3e610b3861394d565b926133e0565b1561131e57610b4b61394d565b965b6040519c8d967f3c73766720786d6c6e733d22687474703a2f2f7777772e77332e6f72672f3230828901527f30302f737667222076696577426f783d2230203020313932302031303830222060408901527f7072657365727665417370656374526174696f3d22784d6964594d6964206d6560608901526332ba111f60e11b6080890152805191829101608489015e8601907f3c696d61676520687265663d2268747470733a2f2f70726f706574682e34657660848301527065726c616e642e6c696e6b2f697066732f60781b60a48301525f9160025490610c2e826133e0565b91600181169081156112f8575060011461129a575b50509460026020610e829a605a8284998582610e7d9e9b6071600d9f879d848e819f937f222077696474683d223139323022206865696768743d2231303830222f3e00008395527f3c7465787420783d223936302220793d223433302220746578742d616e63686f601e8301527f723d226d6964646c65222066696c6c3d22233030302220666f6e742d73697a65603e830152721e911a1c11103337b73a16b330b6b4b63c9e9160691b605e8301528051928391018683015e019061111f60f11b84830152805192839101607383015e010190661e17ba32bc3a1f60c91b848301527f3c7465787420783d223936302220793d223538302220746578742d616e63686f60098301527f723d226d6964646c65222066696c6c3d22233030302220666f6e742d73697a656029830152721e911a1c11103337b73a16b330b6b4b63c9e9160691b6049830152805192839101605c83015e01019061111f60f11b84830152805192839101605c83015e010190661e17ba32bc3a1f60c91b848301527f3c7465787420783d223936302220793d223733302220746578742d616e63686f60098301527f723d226d6964646c65222066696c6c3d22233030302220666f6e742d73697a656029830152721e911a1c11103337b73a16b330b6b4b63c9e9160691b6049830152805192839101605c83015e01019061111f60f11b84830152805192839101605c83015e0101661e17ba32bc3a1f60c91b83820152651e17b9bb339f60d11b6009820152030160121981018a520188613433565b613c22565b95610e8d8851613c22565b97610e988251613c22565b96610ebc610eb5610eb5610eb5610eaf8851613c22565b94613d6a565b9451613c22565b945161128c57610eca613990565b955b5161127e57610ed9613990565b965b5161127057610ee8613990565b975b6040519a8b809b717b226e616d65223a22466f7274756e65202360701b60208301528051916020839201906032015e8b01603281017f222c226465736372697074696f6e223a2241206d7973746963616c20666f72749052605281017f756e6520636f6d706f7365642066726f6d20746865207472697074796368206f905260728101670331031b0b93239960c51b905281516020819301607a83015e016032016048810161016160f51b905281516020819301604a83015e016048016002810161016160f51b905281516020819301600483015e01600201600281017f222c22696d616765223a22646174613a696d6167652f7376672b786d6c3b6261905260228101641cd94d8d0b60da1b905281516020819301602783015e016002016f222c2261747472696275746573223a5b60801b6025820152603581017f7b2274726169745f74797065223a22436172642031222c2276616c7565223a22905281516020819301605583015e0160250162089f4b60ea1b6030820152603381017f7b2274726169745f74797065223a22436172642032222c2276616c7565223a22905281516020819301605383015e0160300162089f4b60ea1b6023820152602681017f7b2274726169745f74797065223a22436172642033222c2276616c7565223a22905281516020819301604683015e0160230162089f4b60ea1b6023820152602681017f7b2274726169745f74797065223a2256617269616e742031222c2276616c7565905262111d1160e91b604682015281516020819301604983015e0160230162089f4b60ea1b6026820152602981017f7b2274726169745f74797065223a2256617269616e742032222c2276616c7565905262111d1160e91b604982015281516020819301604c83015e0160260162089f4b60ea1b6026820152602981017f7b2274726169745f74797065223a2256617269616e742033222c2276616c7565905262111d1160e91b604982015281516020819301604c83015e61227d60f01b9101604c810191909152615d7d60f01b604e820152036030810182526111f79060500182613433565b61120090613d6a565b6040518091602082017f646174613a6170706c69636174696f6e2f6a736f6e3b6261736536342c000000905280516020819201603d84015e8101603d81015f905203603d01601f19810182526112569082613433565b6040518091602082526020820161126c91613320565b0390f35b611278613971565b97610eea565b611286613971565b96610edb565b611294613971565b95610ecc565b60025f90815292935090915f80516020613f8c8339815191525b8382106112cb5750500160b5019060026020610c43565b602091929394959697989a9b9950806001915460b585870101520191018f989a99979695949392916112b4565b60ff191660b5838101919091528315159093029091019091019250600290506020610c43565b611326613926565b96610b4d565b610b3e610b38613926565b61133f613926565b95610b1f565b60035f9081529091505f80516020613fac8339815191525b8282106113735750508c01605501610b05610ad1565b60018f916020926055858354920101520191019061135d565b60209d9e9f9350601291506055610b0593859260ff1916828401528015150282010193509e9d9c5050610ad1565b602098999a6040516113cc8b82613433565b5f815292610b07565b3461025f575f36600319011261025f576040515f6003546113f5816133e0565b808452906001811690811561147c5750600114611431575b61126c8361141d81850382613433565b604051918291602083526020830190613320565b60035f9081525f80516020613fac833981519152939250905b8082106114625750909150810160200161141d61140d565b91926001816020925483858801015201910190929161144a565b60ff191660208086019190915291151560051b8401909101915061141d905061140d565b3461025f57602036600319011261025f576004356001600160401b03811161025f576114d090369060040161355e565b5f80516020613fec833981519152546001600160a01b031633141580611603575b6115f4576001600160401b0381116106465761150e6003546133e0565b601f81116115b9575b505f601f8211600114611554578190611544935f926115495750508160011b915f199060031b1c19161790565b600355005b0135905083806103b5565b601f198216925f80516020613fac833981519152915f5b8581106115a157508360019510611588575b505050811b01600355005b01355f19600384901b60f8161c1916905582808061157d565b9092602060018192868601358155019401910161156b565b60035f526115ee905f80516020613fac833981519152601f840160051c8101916020851061073b57601f0160051c019061384e565b82611517565b636f0cab8b60e11b5f5260045ffd5b506005546001600160a01b03163314156114f1565b3461025f57608036600319011261025f57611631613344565b61163961335a565b90604435606435926001600160401b03841161025f576116606108c49436906004016135dc565b9261166c8383836135fa565b33613ae1565b3461025f57602036600319011261025f5761168b613344565b6006546001600160a01b031633036116e1576001600160a01b03165f818152600a60205260408120805460ff191690557f2af83677873529fa48783fad0c9ded9f78d3c159e57351c960979ddc830426699080a2005b637670e5f360e11b5f5260045ffd5b3461025f57606036600319011261025f573660641161025f57611711613a82565b611719613aba565b5f5b60038110611d27576024356004358181148015611d1c575b8015611d11575b611d02576006546001600160a01b03168015611cf35760405163951cfff960e01b8152336004820152602081602481855afa908115611c9e575f91611cb8575b5015611ca9576060602491604051928380926318b7b25560e31b82523360048301525afa908115611c9e575f91611c2b575b506060906040516117bd8382613433565b823682375f5b60038110611ba4575050506040516117db8282613433565b81368237600154926044355f549460405160208101918252836040820152878682015282608082015233861b60a08201524260b48201524460d48201528660f482015260f4815261182e61011482613433565b5190205f5b60038110611b8b5750505f198514611b7757600185015f5560209560405161185b8882613433565b5f81523315611b645761186d87613dd1565b6001600160a01b0381168015159190899083611b28575b61188d33613370565b805460010190555f8281527f80bb2b638cc20bc4d0a60d66940f3ab4a00c1d7b313497ca82fb0b4ab00793028d526040812080546001600160a01b0319163390811790915591907fddf252ad1be2c89b69c2b068fc378daa952ba7f163c4a11628f55a4df523b3ef9080a450611b15578790333b611a31575b50506005908493928796955189860151916040870151936040519661192a88613418565b87528b8701908152604087019182528887019283526080870193845260a08701948552895f5260088c5260405f209651875551600187015551600286015551600385015551600484015551910155335f526009855260405f2060045f5b60038110611a1c57505050335f52600a855260405f20600160ff198254161790556040519180600484378201855f915b60038310611a0257505050507f5b0bb9e87bb11668fa1f19290808432c31c6da3b1b383ad95a9f264067a9d67d60c03392a360015f8051602061404c83398151915255604051908152f35b8351815286955092810192600192909201918791016119b7565b81358184015586955090870190600101611987565b90611a6a9160405180938192630a85bd0160e11b83523360048401525f60248401528b6044840152608060648401526084830190613320565b03815f335af15f9181611ad5575b50611aa45787611a866138d4565b80519182611aa157633250574960e11b5f523360045260245ffd5b01fd5b6001600160e01b03191663757a42ff60e11b01611ac2578688611906565b633250574960e11b5f523360045260245ffd5b9091508881813d8311611b0e575b611aed8183613433565b8101031261025f57516001600160e01b03198116810361025f579089611a78565b503d611ae3565b6339e3563760e11b5f525f60045260245ffd5b5f8281525f8051602061406c8339815191526020526040902080546001600160a01b0319169055611b5883613370565b80545f19019055611884565b633250574960e11b5f525f60045260245ffd5b634e487b7160e01b5f52601160045260245ffd5b8060018381931c16611b9d8288613915565b5201611833565b5f805b60038110611bda575b5015611bbe576001016117c3565b611bc790613903565b35637adbb31560e01b5f5260045260245ffd5b611be48185613915565b511580611c0f575b611bf857600101611ba7565b60019150611c069084613915565b52600187611bb0565b50611c1983613903565b35611c248287613915565b5114611bec565b905060603d606011611c97575b611c428183613433565b810160608282031261025f5780601f8301121561025f5760405191611c68606084613433565b82906060810192831161025f57905b828210611c8757505050836117ac565b8151815260209182019101611c77565b503d611c38565b6040513d5f823e3d90fd5b630ad319a960e41b5f5260045ffd5b90506020813d602011611ceb575b81611cd360209383613433565b8101031261025f5751801515810361025f578461177a565b3d9150611cc6565b632c3caeb560e01b5f5260045ffd5b630db0481d60e31b5f5260045ffd5b50604435821461173a565b506044358114611733565b600f611d3282613903565b351015611d415760010161171b565b611d4a90613903565b35635d19737360e01b5f5260045260245ffd5b3461025f575f36600319011261025f5761126c604051611d7e604082613433565b60058152640352e302e360dc1b6020820152604051918291602083526020830190613320565b3461025f57604036600319011261025f57611dbd613344565b6024359081151580920361025f576001600160a01b0316908115611e2957611de4336133a8565b825f5260205260405f2060ff1981541660ff83161790556040519081527f17307eab39ab6107e8899845ad3d59bd9653f200f220920489ca2b5937696c3160203392a3005b50630b61174360e31b5f5260045260245ffd5b3461025f57602036600319011261025f5760043560018060a01b035f80516020613fec833981519152541633141580611ea5575b6115f4576020817f979eb8afc83726b95afbca25e07b6b8ad54f85e4665207bf5692ad597046871f92600155604051908152a1005b506005546001600160a01b0316331415611e70565b3461025f575f36600319011261025f576040515f5f805160206140ac83398151915254611ee6816133e0565b808452906001811690811561147c5750600114611f0d5761126c8361141d81850382613433565b5f805160206140ac8339815191525f9081527ff4bad0a69248f59680a4f2b3000328cec71a413447c96781cfe5996daa8c456e939250905b808210611f5d5750909150810160200161141d61140d565b919260018160209254838588010152019101909291611f45565b3461025f575f36600319011261025f576020600154604051908152f35b3461025f57604036600319011261025f57611fad613344565b602435906001600160601b0382169081830361025f575f80516020613fec833981519152546001600160a01b031633141580612092575b6115f4576127108211612079576001600160a01b03169081156120665760405160408101908082106001600160401b0383111761064657604091909152828152602001526001600160a01b031660a09190911b6001600160a01b031916177fdaedc9ab023613a7caf35e703657e986ccfad7e3eb0af93a2853f8d65dd86b0055005b635b6cc80560e11b5f525f60045260245ffd5b50636f483d0960e01b5f5260045261271060245260445ffd5b506005546001600160a01b0316331415611fe4565b3461025f575f36600319011261025f575f80516020613fec833981519152546040516001600160a01b039091168152602090f35b3461025f57608036600319011261025f576004356024356044356064356001600160401b03811161025f5761211490369060040161355e565b92909360018060a01b035f80516020613fec83398151915254163314158061225e575b6115f457600f81101561224c57600182101580612241575b612158906137d1565b6121656001841115613810565b5f52600760205260405f20905f5260205260405f20905f5260205260405f20906001600160401b038111610646576121a7816121a184546133e0565b8461389c565b5f601f82116001146121e35781906121d493945f926121d85750508160011b915f199060031b1c19161790565b9055005b0135905084806103b5565b601f19821693835f5260205f20915f5b8681106122295750836001959610612210575b505050811b019055005b01355f19600384901b60f8161c19169055838080612206565b909260206001819286860135815501940191016121f3565b50600382111561214f565b635d19737360e01b5f5260045260245ffd5b506005546001600160a01b0316331415612137565b3461025f575f36600319011261025f575f80516020613fec833981519152546001600160a01b031633141580612301575b6115f4576122b0613aba565b600160ff195f8051602061402c8339815191525416175f8051602061402c833981519152557f62e78cea01bee320cd4e420270b5ea74000d11b0c9f74754ebdbfc544b05a2586020604051338152a1005b506005546001600160a01b03163314156122a4565b3461025f575f36600319011261025f576020604051600f8152f35b3461025f575f36600319011261025f576040515f600254612351816133e0565b808452906001811690811561147c57506001146123785761126c8361141d81850382613433565b60025f9081525f80516020613f8c833981519152939250905b8082106123a95750909150810160200161141d61140d565b919260018160209254838588010152019101909291612391565b3461025f575f36600319011261025f576123db613a4f565b5f80516020613fec83398151915280546001600160a01b031981169091555f906001600160a01b03167f8be0079c531659141344cd1fd0a4f28419497f9722a3daafe3b4186f6b6457e08280a3005b3461025f57602036600319011261025f57612443613344565b6001600160a01b038116156124665761245d602091613370565b54604051908152f35b6322718ad960e21b5f525f60045260245ffd5b3461025f57602036600319011261025f57612492613344565b61249a613a4f565b600580546001600160a01b039283166001600160a01b0319821681179092559091167f101b8081ff3b56bbf45deb824d86a3b0fd38b7e3dd42421105cf8abe9106db0b5f80a3005b3461025f575f36600319011261025f576006546040516001600160a01b039091168152602090f35b3461025f57602036600319011261025f576020612528600435613a20565b6040516001600160a01b039091168152f35b3461025f575f36600319011261025f575f80516020613fec833981519152546001600160a01b0316331415806125c9575b6115f4577f979eb8afc83726b95afbca25e07b6b8ad54f85e4665207bf5692ad597046871f6020600154604051828101918252426040820152446060820152606081526125b9608082613433565b51902080600155604051908152a1005b506005546001600160a01b031633141561256b565b3461025f57602036600319011261025f576004355f52600860205260c060405f2080549060018101549060028101546003820154906005600484015493015493604051958652602086015260408501526060840152608083015260a0820152f35b3461025f575f36600319011261025f57602060ff5f8051602061402c83398151915254166040519015158152f35b3461025f575f36600319011261025f576004546040516001600160a01b039091168152602090f35b3461025f575f36600319011261025f577f00000000000000000000000000000000000000000000000000000000000000006001600160a01b031630036126ec5760206040515f8051602061400c8339815191528152f35b63703e46dd60e11b5f5260045ffd5b604036600319011261025f5761270f613344565b6024356001600160401b03811161025f5761272e9036906004016135dc565b6001600160a01b037f0000000000000000000000000000000000000000000000000000000000000000163081149081156128a6575b506126ec57612770613a4f565b6040516352d1902d60e01b81526001600160a01b0383169290602081600481875afa5f9181612872575b506127b25783634c9c8ce360e01b5f5260045260245ffd5b805f8051602061400c8339815191528592036128605750813b1561284e575f8051602061400c83398151915280546001600160a01b031916821790557fbc7cd75a20ee27fd9adebab32041f755214dbc6bffa90cc0225b39da2e5c2d3b5f80a2815115612836575f808360206108c495519101845af46128306138d4565b91613f2d565b50503461283f57005b63b398979f60e01b5f5260045ffd5b634c9c8ce360e01b5f5260045260245ffd5b632a87526960e21b5f5260045260245ffd5b9091506020813d60201161289e575b8161288e60209383613433565b8101031261025f5751908561279a565b3d9150612881565b5f8051602061400c833981519152546001600160a01b03161415905083612763565b3461025f576108c46128d9366134f4565b90604051926128e9602085613433565b5f845261166c8383836135fa565b3461025f575f36600319011261025f575f80516020613fec833981519152546001600160a01b031633141580612992575b6115f4575f8051602061402c8339815191525460ff8116156129835760ff19165f8051602061402c833981519152557f5db9ee0a495bf2e6ff9c91a7834c1ba4fdd244a5e8aa4e537bd38aeae4b073aa6020604051338152a1005b638dfc202b60e01b5f5260045ffd5b506005546001600160a01b0316331415612928565b3461025f575f36600319011261025f576129bf613a82565b6129c7613a4f565b5f8080804760018060a01b03600454165af16129e16138d4565b50156129fa5760015f8051602061404c83398151915255005b6327fcd9d160e01b5f5260045ffd5b3461025f57602036600319011261025f57612a22613344565b612a2a613a4f565b6001600160a01b03168015612a7157600680546001600160a01b031916821790557f95e13075c927ad7b7858097d81dec2627001edf9e2805ed32fc57dd7e09ce2715f80a2005b630ed2485d60e01b5f5260045ffd5b3461025f57602036600319011261025f57612a99613344565b612aa1613a4f565b6001600160a01b03168015612af357600480546001600160a01b0319811683179091556001600160a01b03167fba2be5e898fed1646bc0814dee1cc9a2aee98f51fced7d5fc4699c47d99077535f80a3005b6305ca16c960e51b5f5260045ffd5b3461025f57602036600319011261025f576004356001600160401b03811161025f57612b3290369060040161355e565b5f80516020613fec833981519152546001600160a01b031633141580612c0a575b6115f4576001600160401b03811161064657612b74816104bc6002546133e0565b5f601f8211600114612ba5578190612ba0935f926115495750508160011b915f199060031b1c19161790565b600255005b601f198216925f80516020613f8c833981519152915f5b858110612bf257508360019510612bd9575b505050811b01600255005b01355f19600384901b60f8161c19169055828080612bce565b90926020600181928686013581550194019101612bbc565b506005546001600160a01b0316331415612b53565b3461025f57604036600319011261025f576004355f9081527fdaedc9ab023613a7caf35e703657e986ccfad7e3eb0af93a2853f8d65dd86b016020526040902054602435906001600160a01b0381169060a01c8115612cb1575b6001600160601b031691828102928184041490151715611b7757604080516001600160a01b0390921682526127109092046020820152f35b50507fdaedc9ab023613a7caf35e703657e986ccfad7e3eb0af93a2853f8d65dd86b00546001600160a01b0381169060a01c612c79565b3461025f57608036600319011261025f576004356001600160401b03811161025f57612d1890369060040161352e565b906024356001600160401b03811161025f57612d3890369060040161352e565b6044939193356001600160401b03811161025f57612d5a90369060040161352e565b9390916064356001600160401b03811161025f57612d7c90369060040161352e565b5f80516020613fec833981519152549196916001600160a01b031633141580612fe2575b6115f45782861480612fd9575b80612fd0575b15612f99579536819003601e1901905f5b878110612dcd57005b600f612dda828a896137c1565b351015612f8e57612e078a86836001612df48284866137c1565b3510159182612f75575b505090506137d1565b612e1f6001612e1783878b6137c1565b351115613810565b88811015612f61578060051b8201358381121561025f57820180356001600160401b03811161025f57803603602083011361025f57612e5f838b8a6137c1565b355f5260076020528b612e77848960405f20936137c1565b355f5260205260405f20612e8c84888c6137c1565b355f5260205260405f2091612eab82612ea585546133e0565b8561389c565b5f90601f8311600114612ef4579180612edd9260019695945f92612ee65750508160011b915f199060031b1c19161790565b90555b01612dc4565b602092500101358f806103b5565b601f19831691845f5260205f20925f5b818110612f47575091600196959492918388959310612f2b575b505050811b019055612ee0565b01602001355f19600384901b60f8161c191690558e8080612f1e565b919360206001819282888801013581550195019201612f04565b634e487b7160e01b5f52603260045260245ffd5b612f8292506003936137c1565b3511158b908388612dfe565b611d4a9088876137c1565b60405162461bcd60e51b815260206004820152600f60248201526e098cadccee8d040dad2e6dac2e8c6d608b1b6044820152606490fd5b50808214612db3565b50818314612dad565b506005546001600160a01b0316331415612da0565b3461025f576108c4613008366134f4565b916135fa565b3461025f575f36600319011261025f5760205f54604051908152f35b3461025f57606036600319011261025f576004355f52600760205260405f206024355f5260205260405f206044355f5260205261126c61141d60405f20613454565b3461025f57602036600319011261025f576001600160a01b0361308d613344565b165f52600a602052602060ff60405f2054166040519015158152f35b3461025f57604036600319011261025f576130c2613344565b6024356130ce81613a20565b33151580613182575b8061315f575b61314c5781906001600160a01b0384811691167f8c5be1e5ebec7d5bd14f71427d1e84f3dd0314c0f7b2291e5b200ac8c7c3b9255f80a45f9081525f8051602061406c8339815191526020526040902080546001600160a01b0319166001600160a01b03909216919091179055005b63a9fbf51f60e01b5f523360045260245ffd5b50613169816133a8565b335f908152602091909152604090205460ff16156130dd565b506001600160a01b0381163314156130d7565b3461025f57602036600319011261025f5760206125286004356131b781613a20565b505f9081525f8051602061406c83398151915260205260409020546001600160a01b031690565b3461025f575f36600319011261025f576040515f5f80516020613fcc8339815191525461320a816133e0565b808452906001811690811561147c57506001146132315761126c8361141d81850382613433565b5f80516020613fcc8339815191525f9081527f37c58c799b6609234b945e882912ee9ad34948a1dfaa20a97485e1a7752bbf81939250905b8082106132815750909150810160200161141d61140d565b919260018160209254838588010152019101909291613269565b3461025f57602036600319011261025f576004359063ffffffff60e01b821680920361025f5760209163152a902d60e11b81149081156132dd575b5015158152f35b6380ac58cd60e01b81149150811561330f575b81156132fe575b50836132d6565b6301ffc9a760e01b149050836132f7565b635b5e139f60e01b811491506132f0565b805180835260209291819084018484015e5f828201840152601f01601f1916010190565b600435906001600160a01b038216820361025f57565b602435906001600160a01b038216820361025f57565b6001600160a01b03165f9081527f80bb2b638cc20bc4d0a60d66940f3ab4a00c1d7b313497ca82fb0b4ab00793036020526040902090565b6001600160a01b03165f9081527f80bb2b638cc20bc4d0a60d66940f3ab4a00c1d7b313497ca82fb0b4ab00793056020526040902090565b90600182811c9216801561340e575b60208310146133fa57565b634e487b7160e01b5f52602260045260245ffd5b91607f16916133ef565b60c081019081106001600160401b0382111761064657604052565b90601f801991011681019081106001600160401b0382111761064657604052565b9060405191825f825492613467846133e0565b80845293600181169081156134d2575060011461348e575b5061348c92500383613433565b565b90505f9291925260205f20905f915b8183106134b657505090602061348c928201015f61347f565b602091935080600191548385890101520191019091849261349d565b90506020925061348c94915060ff191682840152151560051b8201015f61347f565b606090600319011261025f576004356001600160a01b038116810361025f57906024356001600160a01b038116810361025f579060443590565b9181601f8401121561025f578235916001600160401b03831161025f576020808501948460051b01011161025f57565b9181601f8401121561025f578235916001600160401b03831161025f576020838186019501011161025f57565b6001600160401b03811161064657601f01601f191660200190565b9291926135b28261358b565b916135c06040519384613433565b82948184528183011161025f578281602093845f960137010152565b9080601f8301121561025f578160206135f7933591016135a6565b90565b9091906001600160a01b0383168015611b64578261361781613dd1565b913315158061370e575b506001600160a01b0383169561363b90876136d257613370565b60018154019055815f527f80bb2b638cc20bc4d0a60d66940f3ab4a00c1d7b313497ca82fb0b4ab007930260205260405f20816001600160601b0360a01b825416179055857fddf252ad1be2c89b69c2b068fc378daa952ba7f163c4a11628f55a4df523b3ef5f80a4506001600160a01b03168083036136ba57505050565b6364283d7b60e01b5f5260045260245260445260645ffd5b5f8481525f8051602061406c8339815191526020526040902080546001600160a01b031916905561370285613370565b80545f19019055613370565b9091508061375b575b156137245783905f613621565b836001600160a01b03831661374557637e27328960e01b5f5260045260245ffd5b63177e802f60e01b5f523360045260245260445ffd5b506001600160a01b0382163314801561379f575b8061371757505f8481525f8051602061406c83398151915260205260409020546001600160a01b03163314613717565b506137a9826133a8565b335f908152602091909152604090205460ff1661376f565b9190811015612f615760051b0190565b156137d857565b60405162461bcd60e51b815260206004820152601060248201526f24b73b30b634b2103837b9b4ba34b7b760811b6044820152606490fd5b1561381757565b60405162461bcd60e51b815260206004820152600f60248201526e125b9d985b1a59081d985c9a585b9d608a1b6044820152606490fd5b818110613859575050565b5f815560010161384e565b90601f8211613871575050565b61348c9160025f5260205f20906020601f840160051c8301931061073b57601f0160051c019061384e565b9190601f81116138ab57505050565b61348c925f5260205f20906020601f840160051c8301931061073b57601f0160051c019061384e565b3d156138fe573d906138e58261358b565b916138f36040519384613433565b82523d5f602084013e565b606090565b6003811015612f615760051b60040190565b906003811015612f615760051b0190565b60405190613935604083613433565b60098252686d6f6e6f737061636560b81b6020830152565b6040519061395c604083613433565b6006825265437573746f6d60d01b6020830152565b60405190613980604083613433565b60018252602160f91b6020830152565b6040519061399f604083613433565b60018252604160f81b6020830152565b6001600160a01b03168015613a0d575f80516020613fec83398151915280546001600160a01b0319811683179091556001600160a01b03167f8be0079c531659141344cd1fd0a4f28419497f9722a3daafe3b4186f6b6457e05f80a3565b631e4fbdf760e01b5f525f60045260245ffd5b613a2981613dd1565b906001600160a01b03821615613a3d575090565b637e27328960e01b5f5260045260245ffd5b5f80516020613fec833981519152546001600160a01b03163303613a6f57565b63118cdaa760e01b5f523360045260245ffd5b60025f8051602061404c8339815191525414613aab5760025f8051602061404c83398151915255565b633ee5aeb560e01b5f5260045ffd5b60ff5f8051602061402c8339815191525416613ad257565b63d93c066560e01b5f5260045ffd5b823b613aef575b5050505050565b604051630a85bd0160e11b81526001600160a01b039182166004820152918116602483015260448201939093526080606482015291169160209082908190613b3b906084830190613320565b03815f865af15f9181613bab575b50613b775750613b576138d4565b80519081613b725782633250574960e11b5f5260045260245ffd5b602001fd5b6001600160e01b03191663757a42ff60e11b01613b9957505f80808080613ae8565b633250574960e11b5f5260045260245ffd5b9091506020813d602011613be8575b81613bc760209383613433565b8101031261025f57516001600160e01b03198116810361025f57905f613b49565b3d9150613bba565b90613bfa8261358b565b613c076040519182613433565b8281528092613c18601f199161358b565b0190602036910137565b805f9172184f03e93ff9f4daa797ed6e38ed64bf6a1f0160401b821015613d47575b806d04ee2d6d415b85acef8100000000600a921015613d2c575b662386f26fc10000811015613d18575b6305f5e100811015613d07575b612710811015613cf8575b6064811015613cea575b1015613cdf575b600a6021613ca760018501613bf0565b938401015b5f1901916f181899199a1a9b1b9c1cb0b131b232b360811b8282061a8353048015613cda57600a9091613cac565b505090565b600190910190613c97565b606460029104930192613c90565b61271060049104930192613c86565b6305f5e10060089104930192613c7b565b662386f26fc1000060109104930192613c6e565b6d04ee2d6d415b85acef810000000060209104930192613c5e565b506040915072184f03e93ff9f4daa797ed6e38ed64bf6a1f0160401b8104613c44565b6040516135f791613d7c606083613433565b604082527f4142434445464748494a4b4c4d4e4f505152535455565758595a61626364656660208301527f6768696a6b6c6d6e6f707172737475767778797a303132333435363738392b2f6040830152613e0a565b5f9081527f80bb2b638cc20bc4d0a60d66940f3ab4a00c1d7b313497ca82fb0b4ab007930260205260409020546001600160a01b031690565b919091805115613eeb57805160028101809111611b775760039004600281901b906001600160fe1b03811603611b7757613e4390613bf0565b90602082019080815182019560208701908151925f83525b888110613e9d5750506003939495965052510680600114613e8b57600214613e81575090565b603d905f19015390565b50603d90815f19820153600119015390565b600360049199969901986001603f8b5182828260121c16870101518453828282600c1c16870101518385015382828260061c1687010151600285015316840101516003820153019497613e5b565b509050604051613efc602082613433565b5f815290565b60ff5f8051602061408c8339815191525460401c1615613f1e57565b631afcd79f60e31b5f5260045ffd5b90613f515750805115613f4257805190602001fd5b63d6bda27560e01b5f5260045ffd5b81511580613f82575b613f62575090565b639996b31560e01b5f9081526001600160a01b0391909116600452602490fd5b50803b15613f5a56fe405787fa12a823e0f2b7631cc41b3ba8828b3321ca811111fa75cd3aa3bb5acec2575a0e9e593c00f959f8c92f12db2869c3395a3b0502d05e2516446f71f85b80bb2b638cc20bc4d0a60d66940f3ab4a00c1d7b313497ca82fb0b4ab00793009016d09d72d40fdae2fd8ceac6b6234c7706214fd39c1cd1e609a0528c199300360894a13ba1a3210667c828492db98dca3e2076cc3735a920a3ca505d382bbccd5ed15c6e187e77e9aee88184c21f4f2182ab5827cb3b7e07fbedcd63f033009b779b17422d0df92223018b32b4d1fa46e071723d6817e2486d003becc55f0080bb2b638cc20bc4d0a60d66940f3ab4a00c1d7b313497ca82fb0b4ab0079304f0c57e16840df040f15088dc2f81fe391c3923bec73e23a9662efc9c229c6a0080bb2b638cc20bc4d0a60d66940f3ab4a00c1d7b313497ca82fb0b4ab0079301a26469706673582212208b42da0d51410e22fec6c18226c5155a4f0c7eaa77b31ae9be1ff1e4772ae83c64736f6c634300081a0033",
        "nonce": "0x96",
        "chainId": "0xaa36a7"
      },
      "additionalContracts": [],
      "isFixedGasLimit": false
    },
    {
      "hash": "0x59cf7ba513a44833c6e850cf0ab229c8e995c5cde8a2f8a88ccd314b882de916",
      "transactionType": "CREATE",
      "contractName": "ERC1967Proxy",
      "contractAddress": "0x55f33d60d87bd29853c71689a263fa89c4d5049e",
      "function": null,
      "arguments": [
        "0x45E7508A8f02dB6D80814Eab66Ac28e88a0296CC",
        "0xf62d18880000000000000000000000000000000000000000000000000000000000000020000000000000000000000000000000000000000000000000000000000000003b626166796265696833666f6174646777756363693577686e796865776b7063376337773479333762697276736c6136676a72646d673764363276610000000000"
      ],
      "transaction": {
        "from": "0xf3a3d7f87ee5b778d3a50a6f7d8f16f7141bd132",
        "gas": "0x6f54e",
        "value": "0x0",
        "input": "0x608060405261029d8038038061001481610168565b92833981016040828203126101645781516001600160a01b03811692909190838303610164576020810151906001600160401b03821161016457019281601f8501121561016457835161006e610069826101a1565b610168565b9481865260208601936020838301011161016457815f926020809301865e86010152823b15610152577f360894a13ba1a3210667c828492db98dca3e2076cc3735a920a3ca505d382bbc80546001600160a01b031916821790557fbc7cd75a20ee27fd9adebab32041f755214dbc6bffa90cc0225b39da2e5c2d3b5f80a282511561013a575f8091610122945190845af43d15610132573d91610113610069846101a1565b9283523d5f602085013e6101bc565b505b6040516082908161021b8239f35b6060916101bc565b50505034156101245763b398979f60e01b5f5260045ffd5b634c9c8ce360e01b5f5260045260245ffd5b5f80fd5b6040519190601f01601f191682016001600160401b0381118382101761018d57604052565b634e487b7160e01b5f52604160045260245ffd5b6001600160401b03811161018d57601f01601f191660200190565b906101e057508051156101d157805190602001fd5b63d6bda27560e01b5f5260045ffd5b81511580610211575b6101f1575090565b639996b31560e01b5f9081526001600160a01b0391909116600452602490fd5b50803b156101e956fe60806040527f360894a13ba1a3210667c828492db98dca3e2076cc3735a920a3ca505d382bbc545f9081906001600160a01b0316368280378136915af43d5f803e156048573d5ff35b3d5ffdfea2646970667358221220693bb7dc96aac2aabb447fe996be9b66860ca746e4376ab44dd74a3f63b5a65764736f6c634300081a003300000000000000000000000045e7508a8f02db6d80814eab66ac28e88a0296cc00000000000000000000000000000000000000000000000000000000000000400000000000000000000000000000000000000000000000000000000000000084f62d18880000000000000000000000000000000000000000000000000000000000000020000000000000000000000000000000000000000000000000000000000000003b626166796265696833666f6174646777756363693577686e796865776b7063376337773479333762697276736c6136676a72646d67376436327661000000000000000000000000000000000000000000000000000000000000000000",
        "nonce": "0x97",
        "chainId": "0xaa36a7"
      },
      "additionalContracts": [],
      "isFixedGasLimit": false
    },
    {
      "hash": "0xf5e19c2110eb36c68c94f394b48a51fe6400ebd636851d091ec2a64fbed3904e",
      "transactionType": "CREATE",
      "contractName": "BurnRedeemGateway",
      "contractAddress": "0xb4ad97bda1f44b0fd9c327b1cd42501cf42d5e12",
      "function": null,
      "arguments": [
        "0xa96993515237fc537Ab1250052dC786488a791eE"
      ],
      "transaction": {
        "from": "0xf3a3d7f87ee5b778d3a50a6f7d8f16f7141bd132",
        "gas": "0xb8525",
        "value": "0x0",
        "input": "0x60a0346100f457601f6109a538819003918201601f19168301916001600160401b038311848410176100f8578084926020946040528339810103126100f457516001600160a01b038116908190036100f45733156100e1575f8054336001600160a01b0319821681178355604051939290916001600160a01b0316907f8be0079c531659141344cd1fd0a4f28419497f9722a3daafe3b4186f6b6457e09080a36001805560ff196002541660025580156100d257608052610898908161010d823960805181818161013b015261036a0152f35b632169d9c760e11b5f5260045ffd5b631e4fbdf760e01b5f525f60045260245ffd5b5f80fd5b634e487b7160e01b5f52604160045260245ffdfe60806040526004361015610011575f80fd5b5f3560e01c80630d9816331461062b5780633f4ba83a146105c5578063585cd34b1461055a5780635c975abb14610538578063715018a6146104e157806374a6fb91146102b65780638456cb591461025d5780638da5cb5b14610236578063ba59b4ca146101aa578063e5711ffc1461016a578063ef082838146101265763f2fde38b1461009d575f80fd5b34610122576020366003190112610122576100b66107b1565b6100be610821565b6001600160a01b0316801561010f575f80546001600160a01b03198116831782556001600160a01b0316907f8be0079c531659141344cd1fd0a4f28419497f9722a3daafe3b4186f6b6457e09080a3005b631e4fbdf760e01b5f525f60045260245ffd5b5f80fd5b34610122575f366003190112610122576040517f00000000000000000000000000000000000000000000000000000000000000006001600160a01b03168152602090f35b34610122576020366003190112610122576001600160a01b0361018b6107b1565b165f526003602052602060018060a01b0360405f205416604051908152f35b34610122576040366003190112610122576101c36107b1565b6024356001600160a01b0381169190829003610122576101e1610821565b6001600160a01b039081165f81815260036020526040812080546001600160a01b03191693851693909317909255907fe5e39617beb2a298b9fa1c3928582d9a96ba7ef7c920acd1117d1d415568670a9080a3005b34610122575f366003190112610122575f546040516001600160a01b039091168152602090f35b34610122575f36600319011261012257610275610821565b61027d610847565b600160ff1960025416176002557f62e78cea01bee320cd4e420270b5ea74000d11b0c9f74754ebdbfc544b05a2586020604051338152a1005b34610122576060366003190112610122576102cf6107b1565b602435604435916002600154146104d25760026001556102ed610847565b6001600160a01b039081165f818152600360205260409020549093911680156104bf5760205f9160646040518094819362c2a94560e01b83523360048401528860248401528760448401525af190811561046a575f91610484575b501561047557604051631af0cba160e11b81523360048201526060816024815f7f00000000000000000000000000000000000000000000000000000000000000006001600160a01b03165af1801561046a576103d7575b5060405191825260208201527fb7eac21a8a27bf1019e43a1a78869a5734aeaf86e132f20dd45d15db8964c25960403392a360018055005b60603d606011610463575b6103ec81836107ff565b81016060828203126101225780601f8301121561012257604051916060830183811067ffffffffffffffff82111761044f5760405282906060810192831161012257905b82821061043f5750505061039f565b8151815260209182019101610430565b634e487b7160e01b5f52604160045260245ffd5b503d6103e2565b6040513d5f823e3d90fd5b631bc5aabf60e21b5f5260045ffd5b90506020813d6020116104b7575b8161049f602093836107ff565b81010312610122575180151581036101225784610348565b3d9150610492565b836309e27d1760e01b5f5260045260245ffd5b633ee5aeb560e01b5f5260045ffd5b34610122575f366003190112610122576104f9610821565b5f80546001600160a01b0319811682556001600160a01b03167f8be0079c531659141344cd1fd0a4f28419497f9722a3daafe3b4186f6b6457e08280a3005b34610122575f36600319011261012257602060ff600254166040519015158152f35b34610122576020366003190112610122575f6105746107b1565b61057c610821565b6001600160a01b031680825260036020526040822080546001600160a01b03191690557fe5e39617beb2a298b9fa1c3928582d9a96ba7ef7c920acd1117d1d415568670a8280a3005b34610122575f366003190112610122576105dd610821565b60025460ff81161561061c5760ff19166002557f5db9ee0a495bf2e6ff9c91a7834c1ba4fdd244a5e8aa4e537bd38aeae4b073aa6020604051338152a1005b638dfc202b60e01b5f5260045ffd5b346101225760403660031901126101225760043567ffffffffffffffff81116101225761065c903690600401610780565b60243567ffffffffffffffff81116101225761067c903690600401610780565b90610685610821565b818303610749575f5b83811061069757005b6001906001600160a01b036106b56106b08387876107c7565b6107eb565b16828060a01b036106ca6106b084898b6107c7565b165f52600360205260405f2090838060a01b03166bffffffffffffffffffffffff60a01b8254161790556107026106b08287896107c7565b828060a01b036107166106b08488886107c7565b1690838060a01b03167fe5e39617beb2a298b9fa1c3928582d9a96ba7ef7c920acd1117d1d415568670a5f80a30161068e565b60405162461bcd60e51b815260206004820152600f60248201526e098cadccee8d040dad2e6dac2e8c6d608b1b6044820152606490fd5b9181601f840112156101225782359167ffffffffffffffff8311610122576020808501948460051b01011161012257565b600435906001600160a01b038216820361012257565b91908110156107d75760051b0190565b634e487b7160e01b5f52603260045260245ffd5b356001600160a01b03811681036101225790565b90601f8019910116810190811067ffffffffffffffff82111761044f57604052565b5f546001600160a01b0316330361083457565b63118cdaa760e01b5f523360045260245ffd5b60ff6002541661085357565b63d93c066560e01b5f5260045ffdfea2646970667358221220cb7f810152aa16619d513e92e21985eb392d284cded315b6c2bf0aca5012e02c64736f6c634300081a0033000000000000000000000000a96993515237fc537ab1250052dc786488a791ee",
        "nonce": "0x98",
        "chainId": "0xaa36a7"
      },
      "additionalContracts": [],
      "isFixedGasLimit": false
    },
    {
      "hash": "0x19acc77813e5a8f5a8fc49b3a18310eea347f1bbe4718c7339dfd7f4b7ed84a2",
      "transactionType": "CALL",
      "contractName": "ERC1967Proxy",
      "contractAddress": "0xa96993515237fc537ab1250052dc786488a791ee",
      "function": null,
      "arguments": null,
      "transaction": {
        "from": "0xf3a3d7f87ee5b778d3a50a6f7d8f16f7141bd132",
        "to": "0xa96993515237fc537ab1250052dc786488a791ee",
        "gas": "0x11bd6",
        "value": "0x0",
        "input": "0x90646b4a000000000000000000000000b4ad97bda1f44b0fd9c327b1cd42501cf42d5e12",
        "nonce": "0x99",
        "chainId": "0xaa36a7"
      },
      "additionalContracts": [],
      "isFixedGasLimit": false
    },
    {
      "hash": "0x8f50eb71dcb5872ba692e1b299ce1fc1bcd0e72d6d64e22f2025d66139d049f0",
      "transactionType": "CALL",
      "contractName": "ERC1967Proxy",
      "contractAddress": "0xa96993515237fc537ab1250052dc786488a791ee",
      "function": null,
      "arguments": null,
      "transaction": {
        "from": "0xf3a3d7f87ee5b778d3a50a6f7d8f16f7141bd132",
        "to": "0xa96993515237fc537ab1250052dc786488a791ee",
        "gas": "0x12b68",
        "value": "0x0",
        "input": "0x6ff58a0e00000000000000000000000055f33d60d87bd29853c71689a263fa89c4d5049e",
        "nonce": "0x9a",
        "chainId": "0xaa36a7"
      },
      "additionalContracts": [],
      "isFixedGasLimit": false
    },
    {
      "hash": "0xff96d7b090ba525ae53698a904d61495e1cb3e7d0212249ad751c564ed8c4992",
      "transactionType": "CALL",
      "contractName": "ERC1967Proxy",
      "contractAddress": "0x55f33d60d87bd29853c71689a263fa89c4d5049e",
      "function": null,
      "arguments": null,
      "transaction": {
        "from": "0xf3a3d7f87ee5b778d3a50a6f7d8f16f7141bd132",
        "to": "0x55f33d60d87bd29853c71689a263fa89c4d5049e",
        "gas": "0x12a2e",
        "value": "0x0",
        "input": "0x39077943000000000000000000000000a96993515237fc537ab1250052dc786488a791ee",
        "nonce": "0x9b",
        "chainId": "0xaa36a7"
      },
      "additionalContracts": [],
      "isFixedGasLimit": false
    },
    {
      "hash": "0x24e7c5695358b5305ec37bd28cd80eccfb1f6497d2d9977a84149409d95a83d4",
      "transactionType": "CALL",
      "contractName": "ERC1967Proxy",
      "contractAddress": "0xa96993515237fc537ab1250052dc786488a791ee",
      "function": null,
      "arguments": null,
      "transaction": {
        "from": "0xf3a3d7f87ee5b778d3a50a6f7d8f16f7141bd132",
        "to": "0xa96993515237fc537ab1250052dc786488a791ee",
        "gas": "0x128f0",
        "value": "0x0",
        "input": "0x8f2fc60b000000000000000000000000f3a3d7f87ee5b778d3a50a6f7d8f16f7141bd13200000000000000000000000000000000000000000000000000000000000001f4",
        "nonce": "0x9c",
        "chainId": "0xaa36a7"
      },
      "additionalContracts": [],
      "isFixedGasLimit": false
    },
    {
      "hash": "0xcdd898b66917c3ea14a8ef47a6df2145698b0ca6f268a71f026d545f8e3bbcf0",
      "transactionType": "CALL",
      "contractName": "ERC1967Proxy",
      "contractAddress": "0x55f33d60d87bd29853c71689a263fa89c4d5049e",
      "function": null,
      "arguments": null,
      "transaction": {
        "from": "0xf3a3d7f87ee5b778d3a50a6f7d8f16f7141bd132",
        "to": "0x55f33d60d87bd29853c71689a263fa89c4d5049e",
        "gas": "0x1285a",
        "value": "0x0",
        "input": "0x8f2fc60b000000000000000000000000f3a3d7f87ee5b778d3a50a6f7d8f16f7141bd13200000000000000000000000000000000000000000000000000000000000001f4",
        "nonce": "0x9d",
        "chainId": "0xaa36a7"
      },
      "additionalContracts": [],
      "isFixedGasLimit": false
    },
    {
      "hash": "0x64247e39314fd7eb2974f9d4b3d47b1ba6e8e5d7f6c8823750907b25d6a70f9f",
      "transactionType": "CALL",
      "contractName": "ERC1967Proxy",
      "contractAddress": "0x55f33d60d87bd29853c71689a263fa89c4d5049e",
      "function": null,
      "arguments": null,
      "transaction": {
        "from": "0xf3a3d7f87ee5b778d3a50a6f7d8f16f7141bd132",
        "to": "0x55f33d60d87bd29853c71689a263fa89c4d5049e",
        "gas": "0x11dde",
        "value": "0x0",
        "input": "0x8c4c9885000000000000000000000000000000000000000000000000000000000000000000000000000000000000000000000000000000000000000000000000000000010000000000000000000000000000000000000000000000000000000000000000000000000000000000000000000000000000000000000000000000000000008000000000000000000000000000000000000000000000000000000000000000154e6f20656e64696e67206973206162736f6c7574650000000000000000000000",
        "nonce": "0x9e",
        "chainId": "0xaa36a7"
      },
      "additionalContracts": [],
      "isFixedGasLimit": false
    },
    {
      "hash": "0x9a3b641dd2a2715721bac8bc4f773b655c6317d77774ce122e024ab1b03c964d",
      "transactionType": "CALL",
      "contractName": "ERC1967Proxy",
      "contractAddress": "0x55f33d60d87bd29853c71689a263fa89c4d5049e",
      "function": null,
      "arguments": null,
      "transaction": {
        "from": "0xf3a3d7f87ee5b778d3a50a6f7d8f16f7141bd132",
        "to": "0x55f33d60d87bd29853c71689a263fa89c4d5049e",
        "gas": "0x11e62",
        "value": "0x0",
        "input": "0x8c4c98850000000000000000000000000000000000000000000000000000000000000000000000000000000000000000000000000000000000000000000000000000000100000000000000000000000000000000000000000000000000000000000000010000000000000000000000000000000000000000000000000000000000000080000000000000000000000000000000000000000000000000000000000000001c54686520656e642063616e2062652074686520626567696e6e696e6700000000",
        "nonce": "0x9f",
        "chainId": "0xaa36a7"
      },
      "additionalContracts": [],
      "isFixedGasLimit": false
    },
    {
      "hash": "0xb4830ac01401f215c435df58bdd55a378fcfbb7a4c6b810127b99f874932d816",
      "transactionType": "CALL",
      "contractName": "ERC1967Proxy",
      "contractAddress": "0x55f33d60d87bd29853c71689a263fa89c4d5049e",
      "function": null,
      "arguments": null,
      "transaction": {
        "from": "0xf3a3d7f87ee5b778d3a50a6f7d8f16f7141bd132",
        "to": "0x55f33d60d87bd29853c71689a263fa89c4d5049e",
        "gas": "0x20ebf",
        "value": "0x0",
        "input": "0x8c4c988500000000000000000000000000000000000000000000000000000000000000000000000000000000000000000000000000000000000000000000000000000002000000000000000000000000000000000000000000000000000000000000000000000000000000000000000000000000000000000000000000000000000000800000000000000000000000000000000000000000000000000000000000000021627574207374727567676c652077696c6c20636f6d6520746f20616e20656e642e00000000000000000000000000000000000000000000000000000000000000",
        "nonce": "0xa0",
        "chainId": "0xaa36a7"
      },
      "additionalContracts": [],
      "isFixedGasLimit": false
    },
    {
      "hash": "0x135e053a270e1dd9e8e0fd62ea39efd013ad1d82e9bc0c93c279f9de32be359d",
      "transactionType": "CALL",
      "contractName": "ERC1967Proxy",
      "contractAddress": "0x55f33d60d87bd29853c71689a263fa89c4d5049e",
      "function": null,
      "arguments": null,
      "transaction": {
        "from": "0xf3a3d7f87ee5b778d3a50a6f7d8f16f7141bd132",
        "to": "0x55f33d60d87bd29853c71689a263fa89c4d5049e",
        "gas": "0x12ec0",
        "value": "0x0",
        "input": "0x8c4c9885000000000000000000000000000000000000000000000000000000000000000000000000000000000000000000000000000000000000000000000000000000020000000000000000000000000000000000000000000000000000000000000001000000000000000000000000000000000000000000000000000000000000008000000000000000000000000000000000000000000000000000000000000000156265666f72652070656163652072657475726e732e0000000000000000000000",
        "nonce": "0xa1",
        "chainId": "0xaa36a7"
      },
      "additionalContracts": [],
      "isFixedGasLimit": false
    },
    {
      "hash": "0x1b7695718854f913abe6091194a67935e5af6c81c557a61932a7b08c9a42d36d",
      "transactionType": "CALL",
      "contractName": "ERC1967Proxy",
      "contractAddress": "0x55f33d60d87bd29853c71689a263fa89c4d5049e",
      "function": null,
      "arguments": null,
      "transaction": {
        "from": "0xf3a3d7f87ee5b778d3a50a6f7d8f16f7141bd132",
        "to": "0x55f33d60d87bd29853c71689a263fa89c4d5049e",
        "gas": "0x11dde",
        "value": "0x0",
        "input": "0x8c4c988500000000000000000000000000000000000000000000000000000000000000000000000000000000000000000000000000000000000000000000000000000003000000000000000000000000000000000000000000000000000000000000000000000000000000000000000000000000000000000000000000000000000000800000000000000000000000000000000000000000000000000000000000000015546865207361646e6573732077696c6c20656e642e0000000000000000000000",
        "nonce": "0xa2",
        "chainId": "0xaa36a7"
      },
      "additionalContracts": [],
      "isFixedGasLimit": false
    },
    {
      "hash": "0x4845d0bc0e5f81b6ea71774c1b947db53d8dc5483a92e3df3afbc2764a09abd1",
      "transactionType": "CALL",
      "contractName": "ERC1967Proxy",
      "contractAddress": "0x55f33d60d87bd29853c71689a263fa89c4d5049e",
      "function": null,
      "arguments": null,
      "transaction": {
        "from": "0xf3a3d7f87ee5b778d3a50a6f7d8f16f7141bd132",
        "to": "0x55f33d60d87bd29853c71689a263fa89c4d5049e",
        "gas": "0x12f06",
        "value": "0x0",
        "input": "0x8c4c9885000000000000000000000000000000000000000000000000000000000000000000000000000000000000000000000000000000000000000000000000000000030000000000000000000000000000000000000000000000000000000000000001000000000000000000000000000000000000000000000000000000000000008000000000000000000000000000000000000000000000000000000000000000194e6f7720697427732074696d6520746f207265666c6563742e00000000000000",
        "nonce": "0xa3",
        "chainId": "0xaa36a7"
      },
      "additionalContracts": [],
      "isFixedGasLimit": false
    },
    {
      "hash": "0x9b42105d2b7f43a826be78c8a77a663cf2eb0083470cf0d8cc407bb2a505f2af",
      "transactionType": "CALL",
      "contractName": "ERC1967Proxy",
      "contractAddress": "0x55f33d60d87bd29853c71689a263fa89c4d5049e",
      "function": null,
      "arguments": null,
      "transaction": {
        "from": "0xf3a3d7f87ee5b778d3a50a6f7d8f16f7141bd132",
        "to": "0x55f33d60d87bd29853c71689a263fa89c4d5049e",
        "gas": "0x12f70",
        "value": "0x0",
        "input": "0x8c4c98850000000000000000000000000000000000000000000000000000000000000001000000000000000000000000000000000000000000000000000000000000000100000000000000000000000000000000000000000000000000000000000000000000000000000000000000000000000000000000000000000000000000000080000000000000000000000000000000000000000000000000000000000000001f4e6f742065766572797468696e672069732077686174206974207365656d7300",
        "nonce": "0xa4",
        "chainId": "0xaa36a7"
      },
      "additionalContracts": [],
      "isFixedGasLimit": false
    },
    {
      "hash": "0x4eef9c47b6f154cd3983ffdf1aa93f7bb2fd0116981f74747cce584a89ec0c54",
      "transactionType": "CALL",
      "contractName": "ERC1967Proxy",
      "contractAddress": "0x55f33d60d87bd29853c71689a263fa89c4d5049e",
      "function": null,
      "arguments": null,
      "transaction": {
        "from": "0xf3a3d7f87ee5b778d3a50a6f7d8f16f7141bd132",
        "to": "0x55f33d60d87bd29853c71689a263fa89c4d5049e",
        "gas": "0x20f34",
        "value": "0x0",
        "input": "0x8c4c988500000000000000000000000000000000000000000000000000000000000000010000000000000000000000000000000000000000000000000000000000000001000000000000000000000000000000000000000000000000000000000000000100000000000000000000000000000000000000000000000000000000000000800000000000000000000000000000000000000000000000000000000000000026547275737420796f75722073656e7365732c20627574206b656570207468656d2073686172700000000000000000000000000000000000000000000000000000",
        "nonce": "0xa5",
        "chainId": "0xaa36a7"
      },
      "additionalContracts": [],
      "isFixedGasLimit": false
    },
    {
      "hash": "0x99d2937d1d015bcff18222f4d1d4a8630e92bc0042e038fcfcc3cb98c20d2168",
      "transactionType": "CALL",
      "contractName": "ERC1967Proxy",
      "contractAddress": "0x55f33d60d87bd29853c71689a263fa89c4d5049e",
      "function": null,
      "arguments": null,
      "transaction": {
        "from": "0xf3a3d7f87ee5b778d3a50a6f7d8f16f7141bd132",
        "to": "0x55f33d60d87bd29853c71689a263fa89c4d5049e",
        "gas": "0x19674",
        "value": "0x0",
        "input": "0x8c4c98850000000000000000000000000000000000000000000000000000000000000001000000000000000000000000000000000000000000000000000000000000000200000000000000000000000000000000000000000000000000000000000000000000000000000000000000000000000000000000000000000000000000000080000000000000000000000000000000000000000000000000000000000000002079657420736f6d656f6e652077696c6c20626520726573706f6e7369626c652e",
        "nonce": "0xa6",
        "chainId": "0xaa36a7"
      },
      "additionalContracts": [],
      "isFixedGasLimit": false
    },
    {
      "hash": "0xca57f6d3b4ad003867c1defb2734d9f41250fe5e74b0e35bb74b9ab4ebede4e1",
      "transactionType": "CALL",
      "contractName": "ERC1967Proxy",
      "contractAddress": "0x55f33d60d87bd29853c71689a263fa89c4d5049e",
      "function": null,
      "arguments": null,
      "transaction": {
        "from": "0xf3a3d7f87ee5b778d3a50a6f7d8f16f7141bd132",
        "to": "0x55f33d60d87bd29853c71689a263fa89c4d5049e",
        "gas": "0x20f12",
        "value": "0x0",
        "input": "0x8c4c988500000000000000000000000000000000000000000000000000000000000000010000000000000000000000000000000000000000000000000000000000000002000000000000000000000000000000000000000000000000000000000000000100000000000000000000000000000000000000000000000000000000000000800000000000000000000000000000000000000000000000000000000000000024736f20796f752063616e20736565207468726f7567682074686520696c6c7573696f6e2e00000000000000000000000000000000000000000000000000000000",
        "nonce": "0xa7",
        "chainId": "0xaa36a7"
      },
      "additionalContracts": [],
      "isFixedGasLimit": false
    },
    {
      "hash": "0xbff5ad8239fb30cb475fe618ff10e1ceb65c6b2acc26befae3a7c2c070625ef0",
      "transactionType": "CALL",
      "contractName": "ERC1967Proxy",
      "contractAddress": "0x55f33d60d87bd29853c71689a263fa89c4d5049e",
      "function": null,
      "arguments": null,
      "transaction": {
        "from": "0xf3a3d7f87ee5b778d3a50a6f7d8f16f7141bd132",
        "to": "0x55f33d60d87bd29853c71689a263fa89c4d5049e",
        "gas": "0x12f2a",
        "value": "0x0",
        "input": "0x8c4c98850000000000000000000000000000000000000000000000000000000000000001000000000000000000000000000000000000000000000000000000000000000300000000000000000000000000000000000000000000000000000000000000000000000000000000000000000000000000000000000000000000000000000080000000000000000000000000000000000000000000000000000000000000001b46696e642077686f2063617374207368616465206f6e20796f752e0000000000",
        "nonce": "0xa8",
        "chainId": "0xaa36a7"
      },
      "additionalContracts": [],
      "isFixedGasLimit": false
    },
    {
      "hash": "0x827c8f514540a72bffeea2a41f3f42380c8fe2b412c5b8a946cd846d04fa7424",
      "transactionType": "CALL",
      "contractName": "ERC1967Proxy",
      "contractAddress": "0x55f33d60d87bd29853c71689a263fa89c4d5049e",
      "function": null,
      "arguments": null,
      "transaction": {
        "from": "0xf3a3d7f87ee5b778d3a50a6f7d8f16f7141bd132",
        "to": "0x55f33d60d87bd29853c71689a263fa89c4d5049e",
        "gas": "0x12f2a",
        "value": "0x0",
        "input": "0x8c4c98850000000000000000000000000000000000000000000000000000000000000001000000000000000000000000000000000000000000000000000000000000000300000000000000000000000000000000000000000000000000000000000000010000000000000000000000000000000000000000000000000000000000000080000000000000000000000000000000000000000000000000000000000000001a596f752077696c6c2066696e6420796f757220616e737765722e000000000000",
        "nonce": "0xa9",
        "chainId": "0xaa36a7"
      },
      "additionalContracts": [],
      "isFixedGasLimit": false
    },
    {
      "hash": "0xf9f7c01fa405ad73924eb481b7d5c224a071ca7581d22948e6633572f1e94d4e",
      "transactionType": "CALL",
      "contractName": "ERC1967Proxy",
      "contractAddress": "0x55f33d60d87bd29853c71689a263fa89c4d5049e",
      "function": null,
      "arguments": null,
      "transaction": {
        "from": "0xf3a3d7f87ee5b778d3a50a6f7d8f16f7141bd132",
        "to": "0x55f33d60d87bd29853c71689a263fa89c4d5049e",
        "gas": "0x11e62",
        "value": "0x0",
        "input": "0x8c4c98850000000000000000000000000000000000000000000000000000000000000002000000000000000000000000000000000000000000000000000000000000000100000000000000000000000000000000000000000000000000000000000000000000000000000000000000000000000000000000000000000000000000000080000000000000000000000000000000000000000000000000000000000000001c536861646f77732068696465207768617420796f752069676e6f726500000000",
        "nonce": "0xaa",
        "chainId": "0xaa36a7"
      },
      "additionalContracts": [],
      "isFixedGasLimit": false
    },
    {
      "hash": "0x20f2ee74e71a262b520af289c5ab517f8b31c28ef1d0a41ac2f35a606561a756",
      "transactionType": "CALL",
      "contractName": "ERC1967Proxy",
      "contractAddress": "0x55f33d60d87bd29853c71689a263fa89c4d5049e",
      "function": null,
      "arguments": null,
      "transaction": {
        "from": "0xf3a3d7f87ee5b778d3a50a6f7d8f16f7141bd132",
        "to": "0x55f33d60d87bd29853c71689a263fa89c4d5049e",
        "gas": "0x20fb9",
        "value": "0x0",
        "input": "0x8c4c98850000000000000000000000000000000000000000000000000000000000000002000000000000000000000000000000000000000000000000000000000000000100000000000000000000000000000000000000000000000000000000000000010000000000000000000000000000000000000000000000000000000000000080000000000000000000000000000000000000000000000000000000000000002e446f6e2774206c657420796f757220656d6f74696f6e7320636c6f75642077686174277320696d706f7274616e74000000000000000000000000000000000000",
        "nonce": "0xab",
        "chainId": "0xaa36a7"
      },
      "additionalContracts": [],
      "isFixedGasLimit": false
    },
    {
      "hash": "0x8107e5bfa16f01d533aad0363e5aea443b9e9d395858976d9ce4d4f9a4bf51ec",
      "transactionType": "CALL",
      "contractName": "ERC1967Proxy",
      "contractAddress": "0x55f33d60d87bd29853c71689a263fa89c4d5049e",
      "function": null,
      "arguments": null,
      "transaction": {
        "from": "0xf3a3d7f87ee5b778d3a50a6f7d8f16f7141bd132",
        "to": "0x55f33d60d87bd29853c71689a263fa89c4d5049e",
        "gas": "0x19674",
        "value": "0x0",
        "input": "0x8c4c9885000000000000000000000000000000000000000000000000000000000000000200000000000000000000000000000000000000000000000000000000000000020000000000000000000000000000000000000000000000000000000000000000000000000000000000000000000000000000000000000000000000000000008000000000000000000000000000000000000000000000000000000000000000207768656e20796f75207769746e6573732074686520696d706f737369626c652e",
        "nonce": "0xac",
        "chainId": "0xaa36a7"
      },
      "additionalContracts": [],
      "isFixedGasLimit": false
    },
    {
      "hash": "0xc17e6f063bf56f00d03a9c07d08af3e0fd83674ab6cc482c4eb963910cd0592f",
      "transactionType": "CALL",
      "contractName": "ERC1967Proxy",
      "contractAddress": "0x55f33d60d87bd29853c71689a263fa89c4d5049e",
      "function": null,
      "arguments": null,
      "transaction": {
        "from": "0xf3a3d7f87ee5b778d3a50a6f7d8f16f7141bd132",
        "to": "0x55f33d60d87bd29853c71689a263fa89c4d5049e",
        "gas": "0x20f34",
        "value": "0x0",
        "input": "0x8c4c98850000000000000000000000000000000000000000000000000000000000000002000000000000000000000000000000000000000000000000000000000000000200000000000000000000000000000000000000000000000000000000000000010000000000000000000000000000000000000000000000000000000000000080000000000000000000000000000000000000000000000000000000000000002662757420646f6e2774206c657420697420636c6f756420796f7572206a756467656d656e742e0000000000000000000000000000000000000000000000000000",
        "nonce": "0xad",
        "chainId": "0xaa36a7"
      },
      "additionalContracts": [],
      "isFixedGasLimit": false
    },
    {
      "hash": "0x67152bbd7164ad0fc3a30c1df750e6a507cf9af5019420c5a1a2e2060047de41",
      "transactionType": "CALL",
      "contractName": "ERC1967Proxy",
      "contractAddress": "0x55f33d60d87bd29853c71689a263fa89c4d5049e",
      "function": null,
      "arguments": null,
      "transaction": {
        "from": "0xf3a3d7f87ee5b778d3a50a6f7d8f16f7141bd132",
        "to": "0x55f33d60d87bd29853c71689a263fa89c4d5049e",
        "gas": "0x12dee",
        "value": "0x0",
        "input": "0x8c4c98850000000000000000000000000000000000000000000000000000000000000002000000000000000000000000000000000000000000000000000000000000000300000000000000000000000000000000000000000000000000000000000000000000000000000000000000000000000000000000000000000000000000000080000000000000000000000000000000000000000000000000000000000000000942652061776172652e0000000000000000000000000000000000000000000000",
        "nonce": "0xae",
        "chainId": "0xaa36a7"
      },
      "additionalContracts": [],
      "isFixedGasLimit": false
    },
    {
      "hash": "0xbafe74d1d65fa643e2e3451c8f0208a4a183d6de441c23d356b0dcbbd990ef80",
      "transactionType": "CALL",
      "contractName": "ERC1967Proxy",
      "contractAddress": "0x55f33d60d87bd29853c71689a263fa89c4d5049e",
      "function": null,
      "arguments": null,
      "transaction": {
        "from": "0xf3a3d7f87ee5b778d3a50a6f7d8f16f7141bd132",
        "to": "0x55f33d60d87bd29853c71689a263fa89c4d5049e",
        "gas": "0x11e20",
        "value": "0x0",
        "input": "0x8c4c98850000000000000000000000000000000000000000000000000000000000000002000000000000000000000000000000000000000000000000000000000000000300000000000000000000000000000000000000000000000000000000000000010000000000000000000000000000000000000000000000000000000000000080000000000000000000000000000000000000000000000000000000000000001750617920617474656e74696f6e20746f207369676e732e000000000000000000",
        "nonce": "0xaf",
        "chainId": "0xaa36a7"
      },
      "additionalContracts": [],
      "isFixedGasLimit": false
    },
    {
      "hash": "0x8912707bbfbbc1db38e3469c5606e6f79714ae6a9bd45f42ccc7bfc178a14c6e",
      "transactionType": "CALL",
      "contractName": "ERC1967Proxy",
      "contractAddress": "0x55f33d60d87bd29853c71689a263fa89c4d5049e",
      "function": null,
      "arguments": null,
      "transaction": {
        "from": "0xf3a3d7f87ee5b778d3a50a6f7d8f16f7141bd132",
        "to": "0x55f33d60d87bd29853c71689a263fa89c4d5049e",
        "gas": "0x20f12",
        "value": "0x0",
        "input": "0x8c4c98850000000000000000000000000000000000000000000000000000000000000003000000000000000000000000000000000000000000000000000000000000000100000000000000000000000000000000000000000000000000000000000000000000000000000000000000000000000000000000000000000000000000000080000000000000000000000000000000000000000000000000000000000000002554686520616972207469676874656e732061726f756e6420796f75722074686f7567687473000000000000000000000000000000000000000000000000000000",
        "nonce": "0xb0",
        "chainId": "0xaa36a7"
      },
      "additionalContracts": [],
      "isFixedGasLimit": false
    },
    {
      "hash": null,
      "transactionType": "CALL",
      "contractName": "ERC1967Proxy",
      "contractAddress": "0x55f33d60d87bd29853c71689a263fa89c4d5049e",
      "function": null,
      "arguments": null,
      "transaction": {
        "from": "0xf3a3d7f87ee5b778d3a50a6f7d8f16f7141bd132",
        "to": "0x55f33d60d87bd29853c71689a263fa89c4d5049e",
        "gas": "0x12f70",
        "value": "0x0",
        "input": "0x8c4c98850000000000000000000000000000000000000000000000000000000000000003000000000000000000000000000000000000000000000000000000000000000100000000000000000000000000000000000000000000000000000000000000010000000000000000000000000000000000000000000000000000000000000080000000000000000000000000000000000000000000000000000000000000001e5072657373757265206275696c6473206265666f72652072656c656173650000",
        "nonce": "0xb1",
        "chainId": "0xaa36a7"
      },
      "additionalContracts": [],
      "isFixedGasLimit": false
    },
    {
      "hash": null,
      "transactionType": "CALL",
      "contractName": "ERC1967Proxy",
      "contractAddress": "0x55f33d60d87bd29853c71689a263fa89c4d5049e",
      "function": null,
      "arguments": null,
      "transaction": {
        "from": "0xf3a3d7f87ee5b778d3a50a6f7d8f16f7141bd132",
        "to": "0x55f33d60d87bd29853c71689a263fa89c4d5049e",
        "gas": "0x12ee3",
        "value": "0x0",
        "input": "0x8c4c988500000000000000000000000000000000000000000000000000000000000000030000000000000000000000000000000000000000000000000000000000000002000000000000000000000000000000000000000000000000000000000000000000000000000000000000000000000000000000000000000000000000000000800000000000000000000000000000000000000000000000000000000000000017756e74696c20736f6d657468696e6720627265616b732e000000000000000000",
        "nonce": "0xb2",
        "chainId": "0xaa36a7"
      },
      "additionalContracts": [],
      "isFixedGasLimit": false
    },
    {
      "hash": null,
      "transactionType": "CALL",
      "contractName": "ERC1967Proxy",
      "contractAddress": "0x55f33d60d87bd29853c71689a263fa89c4d5049e",
      "function": null,
      "arguments": null,
      "transaction": {
        "from": "0xf3a3d7f87ee5b778d3a50a6f7d8f16f7141bd132",
        "to": "0x55f33d60d87bd29853c71689a263fa89c4d5049e",
        "gas": "0x11dde",
        "value": "0x0",
        "input": "0x8c4c9885000000000000000000000000000000000000000000000000000000000000000300000000000000000000000000000000000000000000000000000000000000020000000000000000000000000000000000000000000000000000000000000001000000000000000000000000000000000000000000000000000000000000008000000000000000000000000000000000000000000000000000000000000000137468656e2070656163652072657475726e732e00000000000000000000000000",
        "nonce": "0xb3",
        "chainId": "0xaa36a7"
      },
      "additionalContracts": [],
      "isFixedGasLimit": false
    },
    {
      "hash": null,
      "transactionType": "CALL",
      "contractName": "ERC1967Proxy",
      "contractAddress": "0x55f33d60d87bd29853c71689a263fa89c4d5049e",
      "function": null,
      "arguments": null,
      "transaction": {
        "from": "0xf3a3d7f87ee5b778d3a50a6f7d8f16f7141bd132",
        "to": "0x55f33d60d87bd29853c71689a263fa89c4d5049e",
        "gas": "0x12e7a",
        "value": "0x0",
        "input": "0x8c4c988500000000000000000000000000000000000000000000000000000000000000030000000000000000000000000000000000000000000000000000000000000003000000000000000000000000000000000000000000000000000000000000000000000000000000000000000000000000000000000000000000000000000000800000000000000000000000000000000000000000000000000000000000000011486f6c6420796f75722067726f756e642e000000000000000000000000000000",
        "nonce": "0xb4",
        "chainId": "0xaa36a7"
      },
      "additionalContracts": [],
      "isFixedGasLimit": false
    },
    {
      "hash": null,
      "transactionType": "CALL",
      "contractName": "ERC1967Proxy",
      "contractAddress": "0x55f33d60d87bd29853c71689a263fa89c4d5049e",
      "function": null,
      "arguments": null,
      "transaction": {
        "from": "0xf3a3d7f87ee5b778d3a50a6f7d8f16f7141bd132",
        "to": "0x55f33d60d87bd29853c71689a263fa89c4d5049e",
        "gas": "0x12f06",
        "value": "0x0",
        "input": "0x8c4c98850000000000000000000000000000000000000000000000000000000000000003000000000000000000000000000000000000000000000000000000000000000300000000000000000000000000000000000000000000000000000000000000010000000000000000000000000000000000000000000000000000000000000080000000000000000000000000000000000000000000000000000000000000001842726561746865206265666f726520796f75206d6f76652e0000000000000000",
        "nonce": "0xb5",
        "chainId": "0xaa36a7"
      },
      "additionalContracts": [],
      "isFixedGasLimit": false
    },
    {
      "hash": null,
      "transactionType": "CALL",
      "contractName": "ERC1967Proxy",
      "contractAddress": "0x55f33d60d87bd29853c71689a263fa89c4d5049e",
      "function": null,
      "arguments": null,
      "transaction": {
        "from": "0xf3a3d7f87ee5b778d3a50a6f7d8f16f7141bd132",
        "to": "0x55f33d60d87bd29853c71689a263fa89c4d5049e",
        "gas": "0x11e83",
        "value": "0x0",
        "input": "0x8c4c98850000000000000000000000000000000000000000000000000000000000000004000000000000000000000000000000000000000000000000000000000000000100000000000000000000000000000000000000000000000000000000000000000000000000000000000000000000000000000000000000000000000000000080000000000000000000000000000000000000000000000000000000000000001e54686520756e6b6e6f776e207761746368657320696e2073696c656e63650000",
        "nonce": "0xb6",
        "chainId": "0xaa36a7"
      },
      "additionalContracts": [],
      "isFixedGasLimit": false
    },
    {
      "hash": null,
      "transactionType": "CALL",
      "contractName": "ERC1967Proxy",
      "contractAddress": "0x55f33d60d87bd29853c71689a263fa89c4d5049e",
      "function": null,
      "arguments": null,
      "transaction": {
        "from": "0xf3a3d7f87ee5b778d3a50a6f7d8f16f7141bd132",
        "to": "0x55f33d60d87bd29853c71689a263fa89c4d5049e",
        "gas": "0x12f70",
        "value": "0x0",
        "input": "0x8c4c98850000000000000000000000000000000000000000000000000000000000000004000000000000000000000000000000000000000000000000000000000000000100000000000000000000000000000000000000000000000000000000000000010000000000000000000000000000000000000000000000000000000000000080000000000000000000000000000000000000000000000000000000000000001e4576657279207175657374696f6e20686964657320616e20616e737765720000",
        "nonce": "0xb7",
        "chainId": "0xaa36a7"
      },
      "additionalContracts": [],
      "isFixedGasLimit": false
    },
    {
      "hash": null,
      "transactionType": "CALL",
      "contractName": "ERC1967Proxy",
      "contractAddress": "0x55f33d60d87bd29853c71689a263fa89c4d5049e",
      "function": null,
      "arguments": null,
      "transaction": {
        "from": "0xf3a3d7f87ee5b778d3a50a6f7d8f16f7141bd132",
        "to": "0x55f33d60d87bd29853c71689a263fa89c4d5049e",
        "gas": "0x11e20",
        "value": "0x0",
        "input": "0x8c4c9885000000000000000000000000000000000000000000000000000000000000000400000000000000000000000000000000000000000000000000000000000000020000000000000000000000000000000000000000000000000000000000000000000000000000000000000000000000000000000000000000000000000000008000000000000000000000000000000000000000000000000000000000000000187768696c652074686520756e6b6e6f776e2077616974732e0000000000000000",
        "nonce": "0xb8",
        "chainId": "0xaa36a7"
      },
      "additionalContracts": [],
      "isFixedGasLimit": false
    },
    {
      "hash": null,
      "transactionType": "CALL",
      "contractName": "ERC1967Proxy",
      "contractAddress": "0x55f33d60d87bd29853c71689a263fa89c4d5049e",
      "function": null,
      "arguments": null,
      "transaction": {
        "from": "0xf3a3d7f87ee5b778d3a50a6f7d8f16f7141bd132",
        "to": "0x55f33d60d87bd29853c71689a263fa89c4d5049e",
        "gas": "0x11dfe",
        "value": "0x0",
        "input": "0x8c4c988500000000000000000000000000000000000000000000000000000000000000040000000000000000000000000000000000000000000000000000000000000002000000000000000000000000000000000000000000000000000000000000000100000000000000000000000000000000000000000000000000000000000000800000000000000000000000000000000000000000000000000000000000000015756e74696c2069742069732072657665616c65642e0000000000000000000000",
        "nonce": "0xb9",
        "chainId": "0xaa36a7"
      },
      "additionalContracts": [],
      "isFixedGasLimit": false
    },
    {
      "hash": null,
      "transactionType": "CALL",
      "contractName": "ERC1967Proxy",
      "contractAddress": "0x55f33d60d87bd29853c71689a263fa89c4d5049e",
      "function": null,
      "arguments": null,
      "transaction": {
        "from": "0xf3a3d7f87ee5b778d3a50a6f7d8f16f7141bd132",
        "to": "0x55f33d60d87bd29853c71689a263fa89c4d5049e",
        "gas": "0x11d9b",
        "value": "0x0",
        "input": "0x8c4c988500000000000000000000000000000000000000000000000000000000000000040000000000000000000000000000000000000000000000000000000000000003000000000000000000000000000000000000000000000000000000000000000000000000000000000000000000000000000000000000000000000000000000800000000000000000000000000000000000000000000000000000000000000010446f6e2774206c6f6f6b20617761792e00000000000000000000000000000000",
        "nonce": "0xba",
        "chainId": "0xaa36a7"
      },
      "additionalContracts": [],
      "isFixedGasLimit": false
    },
    {
      "hash": null,
      "transactionType": "CALL",
      "contractName": "ERC1967Proxy",
      "contractAddress": "0x55f33d60d87bd29853c71689a263fa89c4d5049e",
      "function": null,
      "arguments": null,
      "transaction": {
        "from": "0xf3a3d7f87ee5b778d3a50a6f7d8f16f7141bd132",
        "to": "0x55f33d60d87bd29853c71689a263fa89c4d5049e",
        "gas": "0x12f06",
        "value": "0x0",
        "input": "0x8c4c9885000000000000000000000000000000000000000000000000000000000000000400000000000000000000000000000000000000000000000000000000000000030000000000000000000000000000000000000000000000000000000000000001000000000000000000000000000000000000000000000000000000000000008000000000000000000000000000000000000000000000000000000000000000184c657420637572696f7369747920677569646520796f752e0000000000000000",
        "nonce": "0xbb",
        "chainId": "0xaa36a7"
      },
      "additionalContracts": [],
      "isFixedGasLimit": false
    },
    {
      "hash": null,
      "transactionType": "CALL",
      "contractName": "ERC1967Proxy",
      "contractAddress": "0x55f33d60d87bd29853c71689a263fa89c4d5049e",
      "function": null,
      "arguments": null,
      "transaction": {
        "from": "0xf3a3d7f87ee5b778d3a50a6f7d8f16f7141bd132",
        "to": "0x55f33d60d87bd29853c71689a263fa89c4d5049e",
        "gas": "0x20f23",
        "value": "0x0",
        "input": "0x8c4c98850000000000000000000000000000000000000000000000000000000000000005000000000000000000000000000000000000000000000000000000000000000100000000000000000000000000000000000000000000000000000000000000000000000000000000000000000000000000000000000000000000000000000080000000000000000000000000000000000000000000000000000000000000002653696c656e63652067726f77732077686572652074727574682073686f756c6420737065616b0000000000000000000000000000000000000000000000000000",
        "nonce": "0xbc",
        "chainId": "0xaa36a7"
      },
      "additionalContracts": [],
      "isFixedGasLimit": false
    },
    {
      "hash": null,
      "transactionType": "CALL",
      "contractName": "ERC1967Proxy",
      "contractAddress": "0x55f33d60d87bd29853c71689a263fa89c4d5049e",
      "function": null,
      "arguments": null,
      "transaction": {
        "from": "0xf3a3d7f87ee5b778d3a50a6f7d8f16f7141bd132",
        "to": "0x55f33d60d87bd29853c71689a263fa89c4d5049e",
        "gas": "0x20f86",
        "value": "0x0",
        "input": "0x8c4c98850000000000000000000000000000000000000000000000000000000000000005000000000000000000000000000000000000000000000000000000000000000100000000000000000000000000000000000000000000000000000000000000010000000000000000000000000000000000000000000000000000000000000080000000000000000000000000000000000000000000000000000000000000002b496e207374696c6c6e65737320796f752066696e64207768617420776f7264732063616e6e6f7420736179000000000000000000000000000000000000000000",
        "nonce": "0xbd",
        "chainId": "0xaa36a7"
      },
      "additionalContracts": [],
      "isFixedGasLimit": false
    },
    {
      "hash": null,
      "transactionType": "CALL",
      "contractName": "ERC1967Proxy",
      "contractAddress": "0x55f33d60d87bd29853c71689a263fa89c4d5049e",
      "function": null,
      "arguments": null,
      "transaction": {
        "from": "0xf3a3d7f87ee5b778d3a50a6f7d8f16f7141bd132",
        "to": "0x55f33d60d87bd29853c71689a263fa89c4d5049e",
        "gas": "0x12f4d",
        "value": "0x0",
        "input": "0x8c4c98850000000000000000000000000000000000000000000000000000000000000005000000000000000000000000000000000000000000000000000000000000000200000000000000000000000000000000000000000000000000000000000000000000000000000000000000000000000000000000000000000000000000000080000000000000000000000000000000000000000000000000000000000000001d756e74696c20697420636f6e73756d657320796f757220766f6963652e000000",
        "nonce": "0xbe",
        "chainId": "0xaa36a7"
      },
      "additionalContracts": [],
      "isFixedGasLimit": false
    },
    {
      "hash": null,
      "transactionType": "CALL",
      "contractName": "ERC1967Proxy",
      "contractAddress": "0x55f33d60d87bd29853c71689a263fa89c4d5049e",
      "function": null,
      "arguments": null,
      "transaction": {
        "from": "0xf3a3d7f87ee5b778d3a50a6f7d8f16f7141bd132",
        "to": "0x55f33d60d87bd29853c71689a263fa89c4d5049e",
        "gas": "0x12f06",
        "value": "0x0",
        "input": "0x8c4c9885000000000000000000000000000000000000000000000000000000000000000500000000000000000000000000000000000000000000000000000000000000020000000000000000000000000000000000000000000000000000000000000001000000000000000000000000000000000000000000000000000000000000008000000000000000000000000000000000000000000000000000000000000000186265666f72652070656163652074616b657320666f726d2e0000000000000000",
        "nonce": "0xbf",
        "chainId": "0xaa36a7"
      },
      "additionalContracts": [],
      "isFixedGasLimit": false
    },
    {
      "hash": null,
      "transactionType": "CALL",
      "contractName": "ERC1967Proxy",
      "contractAddress": "0x55f33d60d87bd29853c71689a263fa89c4d5049e",
      "function": null,
      "arguments": null,
      "transaction": {
        "from": "0xf3a3d7f87ee5b778d3a50a6f7d8f16f7141bd132",
        "to": "0x55f33d60d87bd29853c71689a263fa89c4d5049e",
        "gas": "0x12e9d",
        "value": "0x0",
        "input": "0x8c4c9885000000000000000000000000000000000000000000000000000000000000000500000000000000000000000000000000000000000000000000000000000000030000000000000000000000000000000000000000000000000000000000000000000000000000000000000000000000000000000000000000000000000000008000000000000000000000000000000000000000000000000000000000000000134c697374656e20746f2074686520766f69642e00000000000000000000000000",
        "nonce": "0xc0",
        "chainId": "0xaa36a7"
      },
      "additionalContracts": [],
      "isFixedGasLimit": false
    },
    {
      "hash": null,
      "transactionType": "CALL",
      "contractName": "ERC1967Proxy",
      "contractAddress": "0x55f33d60d87bd29853c71689a263fa89c4d5049e",
      "function": null,
      "arguments": null,
      "transaction": {
        "from": "0xf3a3d7f87ee5b778d3a50a6f7d8f16f7141bd132",
        "to": "0x55f33d60d87bd29853c71689a263fa89c4d5049e",
        "gas": "0x12f70",
        "value": "0x0",
        "input": "0x8c4c98850000000000000000000000000000000000000000000000000000000000000005000000000000000000000000000000000000000000000000000000000000000300000000000000000000000000000000000000000000000000000000000000010000000000000000000000000000000000000000000000000000000000000080000000000000000000000000000000000000000000000000000000000000001e4c657420717569657420677569646520796f75722074686f75676874732e0000",
        "nonce": "0xc1",
        "chainId": "0xaa36a7"
      },
      "additionalContracts": [],
      "isFixedGasLimit": false
    },
    {
      "hash": null,
      "transactionType": "CALL",
      "contractName": "ERC1967Proxy",
      "contractAddress": "0x55f33d60d87bd29853c71689a263fa89c4d5049e",
      "function": null,
      "arguments": null,
      "transaction": {
        "from": "0xf3a3d7f87ee5b778d3a50a6f7d8f16f7141bd132",
        "to": "0x55f33d60d87bd29853c71689a263fa89c4d5049e",
        "gas": "0x11e83",
        "value": "0x0",
        "input": "0x8c4c98850000000000000000000000000000000000000000000000000000000000000006000000000000000000000000000000000000000000000000000000000000000100000000000000000000000000000000000000000000000000000000000000000000000000000000000000000000000000000000000000000000000000000080000000000000000000000000000000000000000000000000000000000000001e546865206c69676874207472656d626c6573206f6e2074686520656467650000",
        "nonce": "0xc2",
        "chainId": "0xaa36a7"
      },
      "additionalContracts": [],
      "isFixedGasLimit": false
    },
    {
      "hash": null,
      "transactionType": "CALL",
      "contractName": "ERC1967Proxy",
      "contractAddress": "0x55f33d60d87bd29853c71689a263fa89c4d5049e",
      "function": null,
      "arguments": null,
      "transaction": {
        "from": "0xf3a3d7f87ee5b778d3a50a6f7d8f16f7141bd132",
        "to": "0x55f33d60d87bd29853c71689a263fa89c4d5049e",
        "gas": "0x19684",
        "value": "0x0",
        "input": "0x8c4c9885000000000000000000000000000000000000000000000000000000000000000600000000000000000000000000000000000000000000000000000000000000010000000000000000000000000000000000000000000000000000000000000001000000000000000000000000000000000000000000000000000000000000008000000000000000000000000000000000000000000000000000000000000000204120737061726b2061707065617273206265747765656e2074686f7567687473",
        "nonce": "0xc3",
        "chainId": "0xaa36a7"
      },
      "additionalContracts": [],
      "isFixedGasLimit": false
    },
    {
      "hash": null,
      "transactionType": "CALL",
      "contractName": "ERC1967Proxy",
      "contractAddress": "0x55f33d60d87bd29853c71689a263fa89c4d5049e",
      "function": null,
      "arguments": null,
      "transaction": {
        "from": "0xf3a3d7f87ee5b778d3a50a6f7d8f16f7141bd132",
        "to": "0x55f33d60d87bd29853c71689a263fa89c4d5049e",
        "gas": "0x11e41",
        "value": "0x0",
        "input": "0x8c4c98850000000000000000000000000000000000000000000000000000000000000006000000000000000000000000000000000000000000000000000000000000000200000000000000000000000000000000000000000000000000000000000000000000000000000000000000000000000000000000000000000000000000000080000000000000000000000000000000000000000000000000000000000000001a6265666f7265206461726b6e65737320636c61696d732069742e000000000000",
        "nonce": "0xc4",
        "chainId": "0xaa36a7"
      },
      "additionalContracts": [],
      "isFixedGasLimit": false
    },
    {
      "hash": null,
      "transactionType": "CALL",
      "contractName": "ERC1967Proxy",
      "contractAddress": "0x55f33d60d87bd29853c71689a263fa89c4d5049e",
      "function": null,
      "arguments": null,
      "transaction": {
        "from": "0xf3a3d7f87ee5b778d3a50a6f7d8f16f7141bd132",
        "to": "0x55f33d60d87bd29853c71689a263fa89c4d5049e",
        "gas": "0x12f06",
        "value": "0x0",
        "input": "0x8c4c988500000000000000000000000000000000000000000000000000000000000000060000000000000000000000000000000000000000000000000000000000000002000000000000000000000000000000000000000000000000000000000000000100000000000000000000000000000000000000000000000000000000000000800000000000000000000000000000000000000000000000000000000000000018756e74696c20697420737465616469657320616761696e2e0000000000000000",
        "nonce": "0xc5",
        "chainId": "0xaa36a7"
      },
      "additionalContracts": [],
      "isFixedGasLimit": false
    },
    {
      "hash": null,
      "transactionType": "CALL",
      "contractName": "ERC1967Proxy",
      "contractAddress": "0x55f33d60d87bd29853c71689a263fa89c4d5049e",
      "function": null,
      "arguments": null,
      "transaction": {
        "from": "0xf3a3d7f87ee5b778d3a50a6f7d8f16f7141bd132",
        "to": "0x55f33d60d87bd29853c71689a263fa89c4d5049e",
        "gas": "0x11dde",
        "value": "0x0",
        "input": "0x8c4c988500000000000000000000000000000000000000000000000000000000000000060000000000000000000000000000000000000000000000000000000000000003000000000000000000000000000000000000000000000000000000000000000000000000000000000000000000000000000000000000000000000000000000800000000000000000000000000000000000000000000000000000000000000014426c696e6b20616e64206974277320676f6e652e000000000000000000000000",
        "nonce": "0xc6",
        "chainId": "0xaa36a7"
      },
      "additionalContracts": [],
      "isFixedGasLimit": false
    },
    {
      "hash": null,
      "transactionType": "CALL",
      "contractName": "ERC1967Proxy",
      "contractAddress": "0x55f33d60d87bd29853c71689a263fa89c4d5049e",
      "function": null,
      "arguments": null,
      "transaction": {
        "from": "0xf3a3d7f87ee5b778d3a50a6f7d8f16f7141bd132",
        "to": "0x55f33d60d87bd29853c71689a263fa89c4d5049e",
        "gas": "0x12e57",
        "value": "0x0",
        "input": "0x8c4c98850000000000000000000000000000000000000000000000000000000000000006000000000000000000000000000000000000000000000000000000000000000300000000000000000000000000000000000000000000000000000000000000010000000000000000000000000000000000000000000000000000000000000080000000000000000000000000000000000000000000000000000000000000000e4b65657020697420616c6976652e000000000000000000000000000000000000",
        "nonce": "0xc7",
        "chainId": "0xaa36a7"
      },
      "additionalContracts": [],
      "isFixedGasLimit": false
    },
    {
      "hash": null,
      "transactionType": "CALL",
      "contractName": "ERC1967Proxy",
      "contractAddress": "0x55f33d60d87bd29853c71689a263fa89c4d5049e",
      "function": null,
      "arguments": null,
      "transaction": {
        "from": "0xf3a3d7f87ee5b778d3a50a6f7d8f16f7141bd132",
        "to": "0x55f33d60d87bd29853c71689a263fa89c4d5049e",
        "gas": "0x20f02",
        "value": "0x0",
        "input": "0x8c4c988500000000000000000000000000000000000000000000000000000000000000070000000000000000000000000000000000000000000000000000000000000001000000000000000000000000000000000000000000000000000000000000000000000000000000000000000000000000000000000000000000000000000000800000000000000000000000000000000000000000000000000000000000000024596f752073696e6b2062656e656174682077686174206f6e636520776173206c6967687400000000000000000000000000000000000000000000000000000000",
        "nonce": "0xc8",
        "chainId": "0xaa36a7"
      },
      "additionalContracts": [],
      "isFixedGasLimit": false
    },
    {
      "hash": null,
      "transactionType": "CALL",
      "contractName": "ERC1967Proxy",
      "contractAddress": "0x55f33d60d87bd29853c71689a263fa89c4d5049e",
      "function": null,
      "arguments": null,
      "transaction": {
        "from": "0xf3a3d7f87ee5b778d3a50a6f7d8f16f7141bd132",
        "to": "0x55f33d60d87bd29853c71689a263fa89c4d5049e",
        "gas": "0x12f70",
        "value": "0x0",
        "input": "0x8c4c98850000000000000000000000000000000000000000000000000000000000000007000000000000000000000000000000000000000000000000000000000000000100000000000000000000000000000000000000000000000000000000000000010000000000000000000000000000000000000000000000000000000000000080000000000000000000000000000000000000000000000000000000000000001e4c657420796f757273656c662066616c6c20776974686f757420666561720000",
        "nonce": "0xc9",
        "chainId": "0xaa36a7"
      },
      "additionalContracts": [],
      "isFixedGasLimit": false
    },
    {
      "hash": null,
      "transactionType": "CALL",
      "contractName": "ERC1967Proxy",
      "contractAddress": "0x55f33d60d87bd29853c71689a263fa89c4d5049e",
      "function": null,
      "arguments": null,
      "transaction": {
        "from": "0xf3a3d7f87ee5b778d3a50a6f7d8f16f7141bd132",
        "to": "0x55f33d60d87bd29853c71689a263fa89c4d5049e",
        "gas": "0x12ec0",
        "value": "0x0",
        "input": "0x8c4c9885000000000000000000000000000000000000000000000000000000000000000700000000000000000000000000000000000000000000000000000000000000020000000000000000000000000000000000000000000000000000000000000000000000000000000000000000000000000000000000000000000000000000008000000000000000000000000000000000000000000000000000000000000000157768657265206e6f206f6e6520666f6c6c6f77732e0000000000000000000000",
        "nonce": "0xca",
        "chainId": "0xaa36a7"
      },
      "additionalContracts": [],
      "isFixedGasLimit": false
    },
    {
      "hash": null,
      "transactionType": "CALL",
      "contractName": "ERC1967Proxy",
      "contractAddress": "0x55f33d60d87bd29853c71689a263fa89c4d5049e",
      "function": null,
      "arguments": null,
      "transaction": {
        "from": "0xf3a3d7f87ee5b778d3a50a6f7d8f16f7141bd132",
        "to": "0x55f33d60d87bd29853c71689a263fa89c4d5049e",
        "gas": "0x12f70",
        "value": "0x0",
        "input": "0x8c4c98850000000000000000000000000000000000000000000000000000000000000007000000000000000000000000000000000000000000000000000000000000000200000000000000000000000000000000000000000000000000000000000000010000000000000000000000000000000000000000000000000000000000000080000000000000000000000000000000000000000000000000000000000000001e756e74696c20796f7520726561636820756e6465727374616e64696e672e0000",
        "nonce": "0xcb",
        "chainId": "0xaa36a7"
      },
      "additionalContracts": [],
      "isFixedGasLimit": false
    },
    {
      "hash": null,
      "transactionType": "CALL",
      "contractName": "ERC1967Proxy",
      "contractAddress": "0x55f33d60d87bd29853c71689a263fa89c4d5049e",
      "function": null,
      "arguments": null,
      "transaction": {
        "from": "0xf3a3d7f87ee5b778d3a50a6f7d8f16f7141bd132",
        "to": "0x55f33d60d87bd29853c71689a263fa89c4d5049e",
        "gas": "0x12ec0",
        "value": "0x0",
        "input": "0x8c4c988500000000000000000000000000000000000000000000000000000000000000070000000000000000000000000000000000000000000000000000000000000003000000000000000000000000000000000000000000000000000000000000000000000000000000000000000000000000000000000000000000000000000000800000000000000000000000000000000000000000000000000000000000000015446f206e6f7420666967687420677261766974792e0000000000000000000000",
        "nonce": "0xcc",
        "chainId": "0xaa36a7"
      },
      "additionalContracts": [],
      "isFixedGasLimit": false
    },
    {
      "hash": null,
      "transactionType": "CALL",
      "contractName": "ERC1967Proxy",
      "contractAddress": "0x55f33d60d87bd29853c71689a263fa89c4d5049e",
      "function": null,
      "arguments": null,
      "transaction": {
        "from": "0xf3a3d7f87ee5b778d3a50a6f7d8f16f7141bd132",
        "to": "0x55f33d60d87bd29853c71689a263fa89c4d5049e",
        "gas": "0x12f06",
        "value": "0x0",
        "input": "0x8c4c98850000000000000000000000000000000000000000000000000000000000000007000000000000000000000000000000000000000000000000000000000000000300000000000000000000000000000000000000000000000000000000000000010000000000000000000000000000000000000000000000000000000000000080000000000000000000000000000000000000000000000000000000000000001852697365207768656e20796f75206172652072656164792e0000000000000000",
        "nonce": "0xcd",
        "chainId": "0xaa36a7"
      },
      "additionalContracts": [],
      "isFixedGasLimit": false
    },
    {
      "hash": null,
      "transactionType": "CALL",
      "contractName": "ERC1967Proxy",
      "contractAddress": "0x55f33d60d87bd29853c71689a263fa89c4d5049e",
      "function": null,
      "arguments": null,
      "transaction": {
        "from": "0xf3a3d7f87ee5b778d3a50a6f7d8f16f7141bd132",
        "to": "0x55f33d60d87bd29853c71689a263fa89c4d5049e",
        "gas": "0x19674",
        "value": "0x0",
        "input": "0x8c4c988500000000000000000000000000000000000000000000000000000000000000080000000000000000000000000000000000000000000000000000000000000001000000000000000000000000000000000000000000000000000000000000000000000000000000000000000000000000000000000000000000000000000000800000000000000000000000000000000000000000000000000000000000000020536f6d657468696e672077697468696e20626567696e7320746f2073706c6974",
        "nonce": "0xce",
        "chainId": "0xaa36a7"
      },
      "additionalContracts": [],
      "isFixedGasLimit": false
    },
    {
      "hash": null,
      "transactionType": "CALL",
      "contractName": "ERC1967Proxy",
      "contractAddress": "0x55f33d60d87bd29853c71689a263fa89c4d5049e",
      "function": null,
      "arguments": null,
      "transaction": {
        "from": "0xf3a3d7f87ee5b778d3a50a6f7d8f16f7141bd132",
        "to": "0x55f33d60d87bd29853c71689a263fa89c4d5049e",
        "gas": "0x11e83",
        "value": "0x0",
        "input": "0x8c4c98850000000000000000000000000000000000000000000000000000000000000008000000000000000000000000000000000000000000000000000000000000000100000000000000000000000000000000000000000000000000000000000000010000000000000000000000000000000000000000000000000000000000000080000000000000000000000000000000000000000000000000000000000000001d54686520627265616b2072657665616c7320776861742773207265616c000000",
        "nonce": "0xcf",
        "chainId": "0xaa36a7"
      },
      "additionalContracts": [],
      "isFixedGasLimit": false
    },
    {
      "hash": null,
      "transactionType": "CALL",
      "contractName": "ERC1967Proxy",
      "contractAddress": "0x55f33d60d87bd29853c71689a263fa89c4d5049e",
      "function": null,
      "arguments": null,
      "transaction": {
        "from": "0xf3a3d7f87ee5b778d3a50a6f7d8f16f7141bd132",
        "to": "0x55f33d60d87bd29853c71689a263fa89c4d5049e",
        "gas": "0x11e83",
        "value": "0x0",
        "input": "0x8c4c98850000000000000000000000000000000000000000000000000000000000000008000000000000000000000000000000000000000000000000000000000000000200000000000000000000000000000000000000000000000000000000000000000000000000000000000000000000000000000000000000000000000000000080000000000000000000000000000000000000000000000000000000000000001e756e74696c206f6e6c792073686172702065646765732072656d61696e2e0000",
        "nonce": "0xd0",
        "chainId": "0xaa36a7"
      },
      "additionalContracts": [],
      "isFixedGasLimit": false
    },
    {
      "hash": null,
      "transactionType": "CALL",
      "contractName": "ERC1967Proxy",
      "contractAddress": "0x55f33d60d87bd29853c71689a263fa89c4d5049e",
      "function": null,
      "arguments": null,
      "transaction": {
        "from": "0xf3a3d7f87ee5b778d3a50a6f7d8f16f7141bd132",
        "to": "0x55f33d60d87bd29853c71689a263fa89c4d5049e",
        "gas": "0x12f4d",
        "value": "0x0",
        "input": "0x8c4c98850000000000000000000000000000000000000000000000000000000000000008000000000000000000000000000000000000000000000000000000000000000200000000000000000000000000000000000000000000000000000000000000010000000000000000000000000000000000000000000000000000000000000080000000000000000000000000000000000000000000000000000000000000001c6265666f726520746865207069656365732066697420616761696e2e00000000",
        "nonce": "0xd1",
        "chainId": "0xaa36a7"
      },
      "additionalContracts": [],
      "isFixedGasLimit": false
    },
    {
      "hash": null,
      "transactionType": "CALL",
      "contractName": "ERC1967Proxy",
      "contractAddress": "0x55f33d60d87bd29853c71689a263fa89c4d5049e",
      "function": null,
      "arguments": null,
      "transaction": {
        "from": "0xf3a3d7f87ee5b778d3a50a6f7d8f16f7141bd132",
        "to": "0x55f33d60d87bd29853c71689a263fa89c4d5049e",
        "gas": "0x12e9d",
        "value": "0x0",
        "input": "0x8c4c988500000000000000000000000000000000000000000000000000000000000000080000000000000000000000000000000000000000000000000000000000000003000000000000000000000000000000000000000000000000000000000000000000000000000000000000000000000000000000000000000000000000000000800000000000000000000000000000000000000000000000000000000000000013486f6c642074686520667261676d656e74732e00000000000000000000000000",
        "nonce": "0xd2",
        "chainId": "0xaa36a7"
      },
      "additionalContracts": [],
      "isFixedGasLimit": false
    },
    {
      "hash": null,
      "transactionType": "CALL",
      "contractName": "ERC1967Proxy",
      "contractAddress": "0x55f33d60d87bd29853c71689a263fa89c4d5049e",
      "function": null,
      "arguments": null,
      "transaction": {
        "from": "0xf3a3d7f87ee5b778d3a50a6f7d8f16f7141bd132",
        "to": "0x55f33d60d87bd29853c71689a263fa89c4d5049e",
        "gas": "0x12ee3",
        "value": "0x0",
        "input": "0x8c4c98850000000000000000000000000000000000000000000000000000000000000008000000000000000000000000000000000000000000000000000000000000000300000000000000000000000000000000000000000000000000000000000000010000000000000000000000000000000000000000000000000000000000000080000000000000000000000000000000000000000000000000000000000000001657686f6c656e6573732077696c6c2072657475726e2e00000000000000000000",
        "nonce": "0xd3",
        "chainId": "0xaa36a7"
      },
      "additionalContracts": [],
      "isFixedGasLimit": false
    },
    {
      "hash": null,
      "transactionType": "CALL",
      "contractName": "ERC1967Proxy",
      "contractAddress": "0x55f33d60d87bd29853c71689a263fa89c4d5049e",
      "function": null,
      "arguments": null,
      "transaction": {
        "from": "0xf3a3d7f87ee5b778d3a50a6f7d8f16f7141bd132",
        "to": "0x55f33d60d87bd29853c71689a263fa89c4d5049e",
        "gas": "0x12f70",
        "value": "0x0",
        "input": "0x8c4c98850000000000000000000000000000000000000000000000000000000000000009000000000000000000000000000000000000000000000000000000000000000100000000000000000000000000000000000000000000000000000000000000000000000000000000000000000000000000000000000000000000000000000080000000000000000000000000000000000000000000000000000000000000001f5468652072687974686d2066616c7465727320756e6465722073747261696e00",
        "nonce": "0xd4",
        "chainId": "0xaa36a7"
      },
      "additionalContracts": [],
      "isFixedGasLimit": false
    },
    {
      "hash": null,
      "transactionType": "CALL",
      "contractName": "ERC1967Proxy",
      "contractAddress": "0x55f33d60d87bd29853c71689a263fa89c4d5049e",
      "function": null,
      "arguments": null,
      "transaction": {
        "from": "0xf3a3d7f87ee5b778d3a50a6f7d8f16f7141bd132",
        "to": "0x55f33d60d87bd29853c71689a263fa89c4d5049e",
        "gas": "0x20ee1",
        "value": "0x0",
        "input": "0x8c4c98850000000000000000000000000000000000000000000000000000000000000009000000000000000000000000000000000000000000000000000000000000000100000000000000000000000000000000000000000000000000000000000000010000000000000000000000000000000000000000000000000000000000000080000000000000000000000000000000000000000000000000000000000000002154686520626561742072656d696e647320796f7520796f7527726520616c69766500000000000000000000000000000000000000000000000000000000000000",
        "nonce": "0xd5",
        "chainId": "0xaa36a7"
      },
      "additionalContracts": [],
      "isFixedGasLimit": false
    },
    {
      "hash": null,
      "transactionType": "CALL",
      "contractName": "ERC1967Proxy",
      "contractAddress": "0x55f33d60d87bd29853c71689a263fa89c4d5049e",
      "function": null,
      "arguments": null,
      "transaction": {
        "from": "0xf3a3d7f87ee5b778d3a50a6f7d8f16f7141bd132",
        "to": "0x55f33d60d87bd29853c71689a263fa89c4d5049e",
        "gas": "0x11dde",
        "value": "0x0",
        "input": "0x8c4c9885000000000000000000000000000000000000000000000000000000000000000900000000000000000000000000000000000000000000000000000000000000020000000000000000000000000000000000000000000000000000000000000000000000000000000000000000000000000000000000000000000000000000008000000000000000000000000000000000000000000000000000000000000000146265666f72652073696c656e63652077696e732e000000000000000000000000",
        "nonce": "0xd6",
        "chainId": "0xaa36a7"
      },
      "additionalContracts": [],
      "isFixedGasLimit": false
    },
    {
      "hash": null,
      "transactionType": "CALL",
      "contractName": "ERC1967Proxy",
      "contractAddress": "0x55f33d60d87bd29853c71689a263fa89c4d5049e",
      "function": null,
      "arguments": null,
      "transaction": {
        "from": "0xf3a3d7f87ee5b778d3a50a6f7d8f16f7141bd132",
        "to": "0x55f33d60d87bd29853c71689a263fa89c4d5049e",
        "gas": "0x11dde",
        "value": "0x0",
        "input": "0x8c4c988500000000000000000000000000000000000000000000000000000000000000090000000000000000000000000000000000000000000000000000000000000002000000000000000000000000000000000000000000000000000000000000000100000000000000000000000000000000000000000000000000000000000000800000000000000000000000000000000000000000000000000000000000000013756e74696c2063616c6d2072657475726e732e00000000000000000000000000",
        "nonce": "0xd7",
        "chainId": "0xaa36a7"
      },
      "additionalContracts": [],
      "isFixedGasLimit": false
    },
    {
      "hash": null,
      "transactionType": "CALL",
      "contractName": "ERC1967Proxy",
      "contractAddress": "0x55f33d60d87bd29853c71689a263fa89c4d5049e",
      "function": null,
      "arguments": null,
      "transaction": {
        "from": "0xf3a3d7f87ee5b778d3a50a6f7d8f16f7141bd132",
        "to": "0x55f33d60d87bd29853c71689a263fa89c4d5049e",
        "gas": "0x12e9d",
        "value": "0x0",
        "input": "0x8c4c988500000000000000000000000000000000000000000000000000000000000000090000000000000000000000000000000000000000000000000000000000000003000000000000000000000000000000000000000000000000000000000000000000000000000000000000000000000000000000000000000000000000000000800000000000000000000000000000000000000000000000000000000000000013436f756e74206576657279206272656174682e00000000000000000000000000",
        "nonce": "0xd8",
        "chainId": "0xaa36a7"
      },
      "additionalContracts": [],
      "isFixedGasLimit": false
    },
    {
      "hash": null,
      "transactionType": "CALL",
      "contractName": "ERC1967Proxy",
      "contractAddress": "0x55f33d60d87bd29853c71689a263fa89c4d5049e",
      "function": null,
      "arguments": null,
      "transaction": {
        "from": "0xf3a3d7f87ee5b778d3a50a6f7d8f16f7141bd132",
        "to": "0x55f33d60d87bd29853c71689a263fa89c4d5049e",
        "gas": "0x11e20",
        "value": "0x0",
        "input": "0x8c4c988500000000000000000000000000000000000000000000000000000000000000090000000000000000000000000000000000000000000000000000000000000003000000000000000000000000000000000000000000000000000000000000000100000000000000000000000000000000000000000000000000000000000000800000000000000000000000000000000000000000000000000000000000000017466f6c6c6f7720796f7572206f776e2072687974686d2e000000000000000000",
        "nonce": "0xd9",
        "chainId": "0xaa36a7"
      },
      "additionalContracts": [],
      "isFixedGasLimit": false
    },
    {
      "hash": null,
      "transactionType": "CALL",
      "contractName": "ERC1967Proxy",
      "contractAddress": "0x55f33d60d87bd29853c71689a263fa89c4d5049e",
      "function": null,
      "arguments": null,
      "transaction": {
        "from": "0xf3a3d7f87ee5b778d3a50a6f7d8f16f7141bd132",
        "to": "0x55f33d60d87bd29853c71689a263fa89c4d5049e",
        "gas": "0x11e83",
        "value": "0x0",
        "input": "0x8c4c9885000000000000000000000000000000000000000000000000000000000000000a000000000000000000000000000000000000000000000000000000000000000100000000000000000000000000000000000000000000000000000000000000000000000000000000000000000000000000000000000000000000000000000080000000000000000000000000000000000000000000000000000000000000001e546865206d6972726f722073686f7773207768617420796f752064656e790000",
        "nonce": "0xda",
        "chainId": "0xaa36a7"
      },
      "additionalContracts": [],
      "isFixedGasLimit": false
    },
    {
      "hash": null,
      "transactionType": "CALL",
      "contractName": "ERC1967Proxy",
      "contractAddress": "0x55f33d60d87bd29853c71689a263fa89c4d5049e",
      "function": null,
      "arguments": null,
      "transaction": {
        "from": "0xf3a3d7f87ee5b778d3a50a6f7d8f16f7141bd132",
        "to": "0x55f33d60d87bd29853c71689a263fa89c4d5049e",
        "gas": "0x20f02",
        "value": "0x0",
        "input": "0x8c4c9885000000000000000000000000000000000000000000000000000000000000000a00000000000000000000000000000000000000000000000000000000000000010000000000000000000000000000000000000000000000000000000000000001000000000000000000000000000000000000000000000000000000000000008000000000000000000000000000000000000000000000000000000000000000235768617420796f7520736565206973207768617420796f752063616e206368616e67650000000000000000000000000000000000000000000000000000000000",
        "nonce": "0xdb",
        "chainId": "0xaa36a7"
      },
      "additionalContracts": [],
      "isFixedGasLimit": false
    },
    {
      "hash": null,
      "transactionType": "CALL",
      "contractName": "ERC1967Proxy",
      "contractAddress": "0x55f33d60d87bd29853c71689a263fa89c4d5049e",
      "function": null,
      "arguments": null,
      "transaction": {
        "from": "0xf3a3d7f87ee5b778d3a50a6f7d8f16f7141bd132",
        "to": "0x55f33d60d87bd29853c71689a263fa89c4d5049e",
        "gas": "0x20ee1",
        "value": "0x0",
        "input": "0x8c4c9885000000000000000000000000000000000000000000000000000000000000000a0000000000000000000000000000000000000000000000000000000000000002000000000000000000000000000000000000000000000000000000000000000000000000000000000000000000000000000000000000000000000000000000800000000000000000000000000000000000000000000000000000000000000022756e74696c207468652066616365206265636f6d6573206120737472616e6765722e000000000000000000000000000000000000000000000000000000000000",
        "nonce": "0xdc",
        "chainId": "0xaa36a7"
      },
      "additionalContracts": [],
      "isFixedGasLimit": false
    },
    {
      "hash": null,
      "transactionType": "CALL",
      "contractName": "ERC1967Proxy",
      "contractAddress": "0x55f33d60d87bd29853c71689a263fa89c4d5049e",
      "function": null,
      "arguments": null,
      "transaction": {
        "from": "0xf3a3d7f87ee5b778d3a50a6f7d8f16f7141bd132",
        "to": "0x55f33d60d87bd29853c71689a263fa89c4d5049e",
        "gas": "0x12f06",
        "value": "0x0",
        "input": "0x8c4c9885000000000000000000000000000000000000000000000000000000000000000a00000000000000000000000000000000000000000000000000000000000000020000000000000000000000000000000000000000000000000000000000000001000000000000000000000000000000000000000000000000000000000000008000000000000000000000000000000000000000000000000000000000000000186265666f726520747275746820736574746c657320696e2e0000000000000000",
        "nonce": "0xdd",
        "chainId": "0xaa36a7"
      },
      "additionalContracts": [],
      "isFixedGasLimit": false
    },
    {
      "hash": null,
      "transactionType": "CALL",
      "contractName": "ERC1967Proxy",
      "contractAddress": "0x55f33d60d87bd29853c71689a263fa89c4d5049e",
      "function": null,
      "arguments": null,
      "transaction": {
        "from": "0xf3a3d7f87ee5b778d3a50a6f7d8f16f7141bd132",
        "to": "0x55f33d60d87bd29853c71689a263fa89c4d5049e",
        "gas": "0x11dde",
        "value": "0x0",
        "input": "0x8c4c9885000000000000000000000000000000000000000000000000000000000000000a0000000000000000000000000000000000000000000000000000000000000003000000000000000000000000000000000000000000000000000000000000000000000000000000000000000000000000000000000000000000000000000000800000000000000000000000000000000000000000000000000000000000000014446f6e2774206c6f6f6b20746f6f206c6f6e672e000000000000000000000000",
        "nonce": "0xde",
        "chainId": "0xaa36a7"
      },
      "additionalContracts": [],
      "isFixedGasLimit": false
    },
    {
      "hash": null,
      "transactionType": "CALL",
      "contractName": "ERC1967Proxy",
      "contractAddress": "0x55f33d60d87bd29853c71689a263fa89c4d5049e",
      "function": null,
      "arguments": null,
      "transaction": {
        "from": "0xf3a3d7f87ee5b778d3a50a6f7d8f16f7141bd132",
        "to": "0x55f33d60d87bd29853c71689a263fa89c4d5049e",
        "gas": "0x11e20",
        "value": "0x0",
        "input": "0x8c4c9885000000000000000000000000000000000000000000000000000000000000000a00000000000000000000000000000000000000000000000000000000000000030000000000000000000000000000000000000000000000000000000000000001000000000000000000000000000000000000000000000000000000000000008000000000000000000000000000000000000000000000000000000000000000174163636570742077686174206c6f6f6b73206261636b2e000000000000000000",
        "nonce": "0xdf",
        "chainId": "0xaa36a7"
      },
      "additionalContracts": [],
      "isFixedGasLimit": false
    },
    {
      "hash": null,
      "transactionType": "CALL",
      "contractName": "ERC1967Proxy",
      "contractAddress": "0x55f33d60d87bd29853c71689a263fa89c4d5049e",
      "function": null,
      "arguments": null,
      "transaction": {
        "from": "0xf3a3d7f87ee5b778d3a50a6f7d8f16f7141bd132",
        "to": "0x55f33d60d87bd29853c71689a263fa89c4d5049e",
        "gas": "0x11e83",
        "value": "0x0",
        "input": "0x8c4c9885000000000000000000000000000000000000000000000000000000000000000b000000000000000000000000000000000000000000000000000000000000000100000000000000000000000000000000000000000000000000000000000000000000000000000000000000000000000000000000000000000000000000000080000000000000000000000000000000000000000000000000000000000000001e54686520736861646f77206d6f766573206265666f726520796f7520646f0000",
        "nonce": "0xe0",
        "chainId": "0xaa36a7"
      },
      "additionalContracts": [],
      "isFixedGasLimit": false
    },
    {
      "hash": null,
      "transactionType": "CALL",
      "contractName": "ERC1967Proxy",
      "contractAddress": "0x55f33d60d87bd29853c71689a263fa89c4d5049e",
      "function": null,
      "arguments": null,
      "transaction": {
        "from": "0xf3a3d7f87ee5b778d3a50a6f7d8f16f7141bd132",
        "to": "0x55f33d60d87bd29853c71689a263fa89c4d5049e",
        "gas": "0x20f34",
        "value": "0x0",
        "input": "0x8c4c9885000000000000000000000000000000000000000000000000000000000000000b00000000000000000000000000000000000000000000000000000000000000010000000000000000000000000000000000000000000000000000000000000001000000000000000000000000000000000000000000000000000000000000008000000000000000000000000000000000000000000000000000000000000000265768617420686964657320696e206461726b207374696c6c20666f6c6c6f7773206c696768740000000000000000000000000000000000000000000000000000",
        "nonce": "0xe1",
        "chainId": "0xaa36a7"
      },
      "additionalContracts": [],
      "isFixedGasLimit": false
    },
    {
      "hash": null,
      "transactionType": "CALL",
      "contractName": "ERC1967Proxy",
      "contractAddress": "0x55f33d60d87bd29853c71689a263fa89c4d5049e",
      "function": null,
      "arguments": null,
      "transaction": {
        "from": "0xf3a3d7f87ee5b778d3a50a6f7d8f16f7141bd132",
        "to": "0x55f33d60d87bd29853c71689a263fa89c4d5049e",
        "gas": "0x20f34",
        "value": "0x0",
        "input": "0x8c4c9885000000000000000000000000000000000000000000000000000000000000000b0000000000000000000000000000000000000000000000000000000000000002000000000000000000000000000000000000000000000000000000000000000000000000000000000000000000000000000000000000000000000000000000800000000000000000000000000000000000000000000000000000000000000027616e642069742072657665616c73207768617420796f75207265667573656420746f207365652e00000000000000000000000000000000000000000000000000",
        "nonce": "0xe2",
        "chainId": "0xaa36a7"
      },
      "additionalContracts": [],
      "isFixedGasLimit": false
    },
    {
      "hash": null,
      "transactionType": "CALL",
      "contractName": "ERC1967Proxy",
      "contractAddress": "0x55f33d60d87bd29853c71689a263fa89c4d5049e",
      "function": null,
      "arguments": null,
      "transaction": {
        "from": "0xf3a3d7f87ee5b778d3a50a6f7d8f16f7141bd132",
        "to": "0x55f33d60d87bd29853c71689a263fa89c4d5049e",
        "gas": "0x11e41",
        "value": "0x0",
        "input": "0x8c4c9885000000000000000000000000000000000000000000000000000000000000000b00000000000000000000000000000000000000000000000000000000000000020000000000000000000000000000000000000000000000000000000000000001000000000000000000000000000000000000000000000000000000000000008000000000000000000000000000000000000000000000000000000000000000196265666f726520666164696e6720626568696e6420796f752e00000000000000",
        "nonce": "0xe3",
        "chainId": "0xaa36a7"
      },
      "additionalContracts": [],
      "isFixedGasLimit": false
    },
    {
      "hash": null,
      "transactionType": "CALL",
      "contractName": "ERC1967Proxy",
      "contractAddress": "0x55f33d60d87bd29853c71689a263fa89c4d5049e",
      "function": null,
      "arguments": null,
      "transaction": {
        "from": "0xf3a3d7f87ee5b778d3a50a6f7d8f16f7141bd132",
        "to": "0x55f33d60d87bd29853c71689a263fa89c4d5049e",
        "gas": "0x11d17",
        "value": "0x0",
        "input": "0x8c4c9885000000000000000000000000000000000000000000000000000000000000000b0000000000000000000000000000000000000000000000000000000000000003000000000000000000000000000000000000000000000000000000000000000000000000000000000000000000000000000000000000000000000000000000800000000000000000000000000000000000000000000000000000000000000008466163652069742e000000000000000000000000000000000000000000000000",
        "nonce": "0xe4",
        "chainId": "0xaa36a7"
      },
      "additionalContracts": [],
      "isFixedGasLimit": false
    },
    {
      "hash": null,
      "transactionType": "CALL",
      "contractName": "ERC1967Proxy",
      "contractAddress": "0x55f33d60d87bd29853c71689a263fa89c4d5049e",
      "function": null,
      "arguments": null,
      "transaction": {
        "from": "0xf3a3d7f87ee5b778d3a50a6f7d8f16f7141bd132",
        "to": "0x55f33d60d87bd29853c71689a263fa89c4d5049e",
        "gas": "0x12e34",
        "value": "0x0",
        "input": "0x8c4c9885000000000000000000000000000000000000000000000000000000000000000b000000000000000000000000000000000000000000000000000000000000000300000000000000000000000000000000000000000000000000000000000000010000000000000000000000000000000000000000000000000000000000000080000000000000000000000000000000000000000000000000000000000000000c4c657420697420706173732e0000000000000000000000000000000000000000",
        "nonce": "0xe5",
        "chainId": "0xaa36a7"
      },
      "additionalContracts": [],
      "isFixedGasLimit": false
    },
    {
      "hash": null,
      "transactionType": "CALL",
      "contractName": "ERC1967Proxy",
      "contractAddress": "0x55f33d60d87bd29853c71689a263fa89c4d5049e",
      "function": null,
      "arguments": null,
      "transaction": {
        "from": "0xf3a3d7f87ee5b778d3a50a6f7d8f16f7141bd132",
        "to": "0x55f33d60d87bd29853c71689a263fa89c4d5049e",
        "gas": "0x20f55",
        "value": "0x0",
        "input": "0x8c4c9885000000000000000000000000000000000000000000000000000000000000000c0000000000000000000000000000000000000000000000000000000000000001000000000000000000000000000000000000000000000000000000000000000000000000000000000000000000000000000000000000000000000000000000800000000000000000000000000000000000000000000000000000000000000029546865207665696c2066616c6c73206265747765656e206b6e6f77696e6720616e6420736565696e670000000000000000000000000000000000000000000000",
        "nonce": "0xe6",
        "chainId": "0xaa36a7"
      },
      "additionalContracts": [],
      "isFixedGasLimit": false
    },
    {
      "hash": null,
      "transactionType": "CALL",
      "contractName": "ERC1967Proxy",
      "contractAddress": "0x55f33d60d87bd29853c71689a263fa89c4d5049e",
      "function": null,
      "arguments": null,
      "transaction": {
        "from": "0xf3a3d7f87ee5b778d3a50a6f7d8f16f7141bd132",
        "to": "0x55f33d60d87bd29853c71689a263fa89c4d5049e",
        "gas": "0x20f44",
        "value": "0x0",
        "input": "0x8c4c9885000000000000000000000000000000000000000000000000000000000000000c0000000000000000000000000000000000000000000000000000000000000001000000000000000000000000000000000000000000000000000000000000000100000000000000000000000000000000000000000000000000000000000000800000000000000000000000000000000000000000000000000000000000000027546865207665696c20736f6674656e7320776861742074727574682063616e6e6f74206265617200000000000000000000000000000000000000000000000000",
        "nonce": "0xe7",
        "chainId": "0xaa36a7"
      },
      "additionalContracts": [],
      "isFixedGasLimit": false
    },
    {
      "hash": null,
      "transactionType": "CALL",
      "contractName": "ERC1967Proxy",
      "contractAddress": "0x55f33d60d87bd29853c71689a263fa89c4d5049e",
      "function": null,
      "arguments": null,
      "transaction": {
        "from": "0xf3a3d7f87ee5b778d3a50a6f7d8f16f7141bd132",
        "to": "0x55f33d60d87bd29853c71689a263fa89c4d5049e",
        "gas": "0x12f06",
        "value": "0x0",
        "input": "0x8c4c9885000000000000000000000000000000000000000000000000000000000000000c0000000000000000000000000000000000000000000000000000000000000002000000000000000000000000000000000000000000000000000000000000000000000000000000000000000000000000000000000000000000000000000000800000000000000000000000000000000000000000000000000000000000000019756e74696c206f6e6c79207368617065732072656d61696e2e00000000000000",
        "nonce": "0xe8",
        "chainId": "0xaa36a7"
      },
      "additionalContracts": [],
      "isFixedGasLimit": false
    },
    {
      "hash": null,
      "transactionType": "CALL",
      "contractName": "ERC1967Proxy",
      "contractAddress": "0x55f33d60d87bd29853c71689a263fa89c4d5049e",
      "function": null,
      "arguments": null,
      "transaction": {
        "from": "0xf3a3d7f87ee5b778d3a50a6f7d8f16f7141bd132",
        "to": "0x55f33d60d87bd29853c71689a263fa89c4d5049e",
        "gas": "0x12ee3",
        "value": "0x0",
        "input": "0x8c4c9885000000000000000000000000000000000000000000000000000000000000000c00000000000000000000000000000000000000000000000000000000000000020000000000000000000000000000000000000000000000000000000000000001000000000000000000000000000000000000000000000000000000000000008000000000000000000000000000000000000000000000000000000000000000166265666f7265206974206f70656e7320616761696e2e00000000000000000000",
        "nonce": "0xe9",
        "chainId": "0xaa36a7"
      },
      "additionalContracts": [],
      "isFixedGasLimit": false
    },
    {
      "hash": null,
      "transactionType": "CALL",
      "contractName": "ERC1967Proxy",
      "contractAddress": "0x55f33d60d87bd29853c71689a263fa89c4d5049e",
      "function": null,
      "arguments": null,
      "transaction": {
        "from": "0xf3a3d7f87ee5b778d3a50a6f7d8f16f7141bd132",
        "to": "0x55f33d60d87bd29853c71689a263fa89c4d5049e",
        "gas": "0x12e57",
        "value": "0x0",
        "input": "0x8c4c9885000000000000000000000000000000000000000000000000000000000000000c000000000000000000000000000000000000000000000000000000000000000300000000000000000000000000000000000000000000000000000000000000000000000000000000000000000000000000000000000000000000000000000080000000000000000000000000000000000000000000000000000000000000000f4c6f6f6b206265796f6e642069742e0000000000000000000000000000000000",
        "nonce": "0xea",
        "chainId": "0xaa36a7"
      },
      "additionalContracts": [],
      "isFixedGasLimit": false
    },
    {
      "hash": null,
      "transactionType": "CALL",
      "contractName": "ERC1967Proxy",
      "contractAddress": "0x55f33d60d87bd29853c71689a263fa89c4d5049e",
      "function": null,
      "arguments": null,
      "transaction": {
        "from": "0xf3a3d7f87ee5b778d3a50a6f7d8f16f7141bd132",
        "to": "0x55f33d60d87bd29853c71689a263fa89c4d5049e",
        "gas": "0x11d9b",
        "value": "0x0",
        "input": "0x8c4c9885000000000000000000000000000000000000000000000000000000000000000c000000000000000000000000000000000000000000000000000000000000000300000000000000000000000000000000000000000000000000000000000000010000000000000000000000000000000000000000000000000000000000000080000000000000000000000000000000000000000000000000000000000000000f4c6966742069742067656e746c792e0000000000000000000000000000000000",
        "nonce": "0xeb",
        "chainId": "0xaa36a7"
      },
      "additionalContracts": [],
      "isFixedGasLimit": false
    },
    {
      "hash": null,
      "transactionType": "CALL",
      "contractName": "ERC1967Proxy",
      "contractAddress": "0x55f33d60d87bd29853c71689a263fa89c4d5049e",
      "function": null,
      "arguments": null,
      "transaction": {
        "from": "0xf3a3d7f87ee5b778d3a50a6f7d8f16f7141bd132",
        "to": "0x55f33d60d87bd29853c71689a263fa89c4d5049e",
        "gas": "0x20ee1",
        "value": "0x0",
        "input": "0x8c4c9885000000000000000000000000000000000000000000000000000000000000000d000000000000000000000000000000000000000000000000000000000000000100000000000000000000000000000000000000000000000000000000000000000000000000000000000000000000000000000000000000000000000000000080000000000000000000000000000000000000000000000000000000000000002254686520616e63686f722064726167732062656e6561746820796f75722063616c6d000000000000000000000000000000000000000000000000000000000000",
        "nonce": "0xec",
        "chainId": "0xaa36a7"
      },
      "additionalContracts": [],
      "isFixedGasLimit": false
    },
    {
      "hash": null,
      "transactionType": "CALL",
      "contractName": "ERC1967Proxy",
      "contractAddress": "0x55f33d60d87bd29853c71689a263fa89c4d5049e",
      "function": null,
      "arguments": null,
      "transaction": {
        "from": "0xf3a3d7f87ee5b778d3a50a6f7d8f16f7141bd132",
        "to": "0x55f33d60d87bd29853c71689a263fa89c4d5049e",
        "gas": "0x20ef2",
        "value": "0x0",
        "input": "0x8c4c9885000000000000000000000000000000000000000000000000000000000000000d0000000000000000000000000000000000000000000000000000000000000001000000000000000000000000000000000000000000000000000000000000000100000000000000000000000000000000000000000000000000000000000000800000000000000000000000000000000000000000000000000000000000000022486f6c6420737465616479207768657265207468652073746f726d20626567696e73000000000000000000000000000000000000000000000000000000000000",
        "nonce": "0xed",
        "chainId": "0xaa36a7"
      },
      "additionalContracts": [],
      "isFixedGasLimit": false
    },
    {
      "hash": null,
      "transactionType": "CALL",
      "contractName": "ERC1967Proxy",
      "contractAddress": "0x55f33d60d87bd29853c71689a263fa89c4d5049e",
      "function": null,
      "arguments": null,
      "transaction": {
        "from": "0xf3a3d7f87ee5b778d3a50a6f7d8f16f7141bd132",
        "to": "0x55f33d60d87bd29853c71689a263fa89c4d5049e",
        "gas": "0x11dfe",
        "value": "0x0",
        "input": "0x8c4c9885000000000000000000000000000000000000000000000000000000000000000d0000000000000000000000000000000000000000000000000000000000000002000000000000000000000000000000000000000000000000000000000000000000000000000000000000000000000000000000000000000000000000000000800000000000000000000000000000000000000000000000000000000000000016616e642069742070756c6c7320796f7520646f776e2e00000000000000000000",
        "nonce": "0xee",
        "chainId": "0xaa36a7"
      },
      "additionalContracts": [],
      "isFixedGasLimit": false
    },
    {
      "hash": null,
      "transactionType": "CALL",
      "contractName": "ERC1967Proxy",
      "contractAddress": "0x55f33d60d87bd29853c71689a263fa89c4d5049e",
      "function": null,
      "arguments": null,
      "transaction": {
        "from": "0xf3a3d7f87ee5b778d3a50a6f7d8f16f7141bd132",
        "to": "0x55f33d60d87bd29853c71689a263fa89c4d5049e",
        "gas": "0x11dfe",
        "value": "0x0",
        "input": "0x8c4c9885000000000000000000000000000000000000000000000000000000000000000d0000000000000000000000000000000000000000000000000000000000000002000000000000000000000000000000000000000000000000000000000000000100000000000000000000000000000000000000000000000000000000000000800000000000000000000000000000000000000000000000000000000000000015756e74696c207468652074696465207475726e732e0000000000000000000000",
        "nonce": "0xef",
        "chainId": "0xaa36a7"
      },
      "additionalContracts": [],
      "isFixedGasLimit": false
    },
    {
      "hash": null,
      "transactionType": "CALL",
      "contractName": "ERC1967Proxy",
      "contractAddress": "0x55f33d60d87bd29853c71689a263fa89c4d5049e",
      "function": null,
      "arguments": null,
      "transaction": {
        "from": "0xf3a3d7f87ee5b778d3a50a6f7d8f16f7141bd132",
        "to": "0x55f33d60d87bd29853c71689a263fa89c4d5049e",
        "gas": "0x12e57",
        "value": "0x0",
        "input": "0x8c4c9885000000000000000000000000000000000000000000000000000000000000000d000000000000000000000000000000000000000000000000000000000000000300000000000000000000000000000000000000000000000000000000000000000000000000000000000000000000000000000000000000000000000000000080000000000000000000000000000000000000000000000000000000000000000f43757420746865207765696768742e0000000000000000000000000000000000",
        "nonce": "0xf0",
        "chainId": "0xaa36a7"
      },
      "additionalContracts": [],
      "isFixedGasLimit": false
    },
    {
      "hash": null,
      "transactionType": "CALL",
      "contractName": "ERC1967Proxy",
      "contractAddress": "0x55f33d60d87bd29853c71689a263fa89c4d5049e",
      "function": null,
      "arguments": null,
      "transaction": {
        "from": "0xf3a3d7f87ee5b778d3a50a6f7d8f16f7141bd132",
        "to": "0x55f33d60d87bd29853c71689a263fa89c4d5049e",
        "gas": "0x12e57",
        "value": "0x0",
        "input": "0x8c4c9885000000000000000000000000000000000000000000000000000000000000000d000000000000000000000000000000000000000000000000000000000000000300000000000000000000000000000000000000000000000000000000000000010000000000000000000000000000000000000000000000000000000000000080000000000000000000000000000000000000000000000000000000000000000e537461792067726f756e6465642e000000000000000000000000000000000000",
        "nonce": "0xf1",
        "chainId": "0xaa36a7"
      },
      "additionalContracts": [],
      "isFixedGasLimit": false
    },
    {
      "hash": null,
      "transactionType": "CALL",
      "contractName": "ERC1967Proxy",
      "contractAddress": "0x55f33d60d87bd29853c71689a263fa89c4d5049e",
      "function": null,
      "arguments": null,
      "transaction": {
        "from": "0xf3a3d7f87ee5b778d3a50a6f7d8f16f7141bd132",
        "to": "0x55f33d60d87bd29853c71689a263fa89c4d5049e",
        "gas": "0x20f55",
        "value": "0x0",
        "input": "0x8c4c9885000000000000000000000000000000000000000000000000000000000000000e000000000000000000000000000000000000000000000000000000000000000100000000000000000000000000000000000000000000000000000000000000000000000000000000000000000000000000000000000000000000000000000080000000000000000000000000000000000000000000000000000000000000002954686520776869737065722074656c6c73207768617420796f752073686f756c646e277420686561720000000000000000000000000000000000000000000000",
        "nonce": "0xf2",
        "chainId": "0xaa36a7"
      },
      "additionalContracts": [],
      "isFixedGasLimit": false
    },
    {
      "hash": null,
      "transactionType": "CALL",
      "contractName": "ERC1967Proxy",
      "contractAddress": "0x55f33d60d87bd29853c71689a263fa89c4d5049e",
      "function": null,
      "arguments": null,
      "transaction": {
        "from": "0xf3a3d7f87ee5b778d3a50a6f7d8f16f7141bd132",
        "to": "0x55f33d60d87bd29853c71689a263fa89c4d5049e",
        "gas": "0x20f23",
        "value": "0x0",
        "input": "0x8c4c9885000000000000000000000000000000000000000000000000000000000000000e0000000000000000000000000000000000000000000000000000000000000001000000000000000000000000000000000000000000000000000000000000000100000000000000000000000000000000000000000000000000000000000000800000000000000000000000000000000000000000000000000000000000000025412067656e746c6520766f69636520737065616b732062656e656174682074686f75676874000000000000000000000000000000000000000000000000000000",
        "nonce": "0xf3",
        "chainId": "0xaa36a7"
      },
      "additionalContracts": [],
      "isFixedGasLimit": false
    },
    {
      "hash": null,
      "transactionType": "CALL",
      "contractName": "ERC1967Proxy",
      "contractAddress": "0x55f33d60d87bd29853c71689a263fa89c4d5049e",
      "function": null,
      "arguments": null,
      "transaction": {
        "from": "0xf3a3d7f87ee5b778d3a50a6f7d8f16f7141bd132",
        "to": "0x55f33d60d87bd29853c71689a263fa89c4d5049e",
        "gas": "0x12f4d",
        "value": "0x0",
        "input": "0x8c4c9885000000000000000000000000000000000000000000000000000000000000000e000000000000000000000000000000000000000000000000000000000000000200000000000000000000000000000000000000000000000000000000000000000000000000000000000000000000000000000000000000000000000000000080000000000000000000000000000000000000000000000000000000000000001d756e74696c2073696c656e636520686964657320697420616761696e2e000000",
        "nonce": "0xf4",
        "chainId": "0xaa36a7"
      },
      "additionalContracts": [],
      "isFixedGasLimit": false
    },
    {
      "hash": null,
      "transactionType": "CALL",
      "contractName": "ERC1967Proxy",
      "contractAddress": "0x55f33d60d87bd29853c71689a263fa89c4d5049e",
      "function": null,
      "arguments": null,
      "transaction": {
        "from": "0xf3a3d7f87ee5b778d3a50a6f7d8f16f7141bd132",
        "to": "0x55f33d60d87bd29853c71689a263fa89c4d5049e",
        "gas": "0x12f06",
        "value": "0x0",
        "input": "0x8c4c9885000000000000000000000000000000000000000000000000000000000000000e00000000000000000000000000000000000000000000000000000000000000020000000000000000000000000000000000000000000000000000000000000001000000000000000000000000000000000000000000000000000000000000008000000000000000000000000000000000000000000000000000000000000000186265666f726520697420666164657320746f2063616c6d2e0000000000000000",
        "nonce": "0xf5",
        "chainId": "0xaa36a7"
      },
      "additionalContracts": [],
      "isFixedGasLimit": false
    },
    {
      "hash": null,
      "transactionType": "CALL",
      "contractName": "ERC1967Proxy",
      "contractAddress": "0x55f33d60d87bd29853c71689a263fa89c4d5049e",
      "function": null,
      "arguments": null,
      "transaction": {
        "from": "0xf3a3d7f87ee5b778d3a50a6f7d8f16f7141bd132",
        "to": "0x55f33d60d87bd29853c71689a263fa89c4d5049e",
        "gas": "0x11d9b",
        "value": "0x0",
        "input": "0x8c4c9885000000000000000000000000000000000000000000000000000000000000000e0000000000000000000000000000000000000000000000000000000000000003000000000000000000000000000000000000000000000000000000000000000000000000000000000000000000000000000000000000000000000000000000800000000000000000000000000000000000000000000000000000000000000010446f6e2774207265706561742069742e00000000000000000000000000000000",
        "nonce": "0xf6",
        "chainId": "0xaa36a7"
      },
      "additionalContracts": [],
      "isFixedGasLimit": false
    },
    {
      "hash": null,
      "transactionType": "CALL",
      "contractName": "ERC1967Proxy",
      "contractAddress": "0x55f33d60d87bd29853c71689a263fa89c4d5049e",
      "function": null,
      "arguments": null,
      "transaction": {
        "from": "0xf3a3d7f87ee5b778d3a50a6f7d8f16f7141bd132",
        "to": "0x55f33d60d87bd29853c71689a263fa89c4d5049e",
        "gas": "0x12e57",
        "value": "0x0",
        "input": "0x8c4c9885000000000000000000000000000000000000000000000000000000000000000e000000000000000000000000000000000000000000000000000000000000000300000000000000000000000000000000000000000000000000000000000000010000000000000000000000000000000000000000000000000000000000000080000000000000000000000000000000000000000000000000000000000000000e4b65657020697420636c6f73652e000000000000000000000000000000000000",
        "nonce": "0xf7",
        "chainId": "0xaa36a7"
      },
      "additionalContracts": [],
      "isFixedGasLimit": false
    },
    {
      "hash": null,
      "transactionType": "CREATE",
      "contractName": "DirectBurn1155",
      "contractAddress": "0xafa1fc4aae9657bf249d9073124d3b7c49a4bd8a",
      "function": null,
      "arguments": [
        "0x1B5b28cef8b6f6961AD5606461495f7390F40BFb"
      ],
      "transaction": {
        "from": "0xf3a3d7f87ee5b778d3a50a6f7d8f16f7141bd132",
        "gas": "0x6c986",
        "value": "0x0",
        "input": "0x60a034606f57601f6105b938819003918201601f19168301916001600160401b03831184841017607357808492602094604052833981010312606f57516001600160a01b03811690819003606f576080526040516105319081610088823960805181818161015901526101a90152f35b5f80fd5b634e487b7160e01b5f52604160045260245ffdfe6080806040526004361015610012575f80fd5b5f905f3560e01c908162c2a94514610188575080637de1e53614610143578063bc197c81146100a75763f23a6e6114610049575f80fd5b346100a45760a03660031901126100a4576100626103e6565b5061006b6103fc565b5060843567ffffffffffffffff81116100a05761008c903690600401610443565b505060405163f23a6e6160e01b8152602090f35b5080fd5b80fd5b50346100a45760a03660031901126100a4576100c16103e6565b506100ca6103fc565b5060443567ffffffffffffffff81116100a0576100eb903690600401610412565b505060643567ffffffffffffffff81116100a05761010d903690600401610412565b505060843567ffffffffffffffff81116100a05761012f903690600401610443565b505060405163bc197c8160e01b8152602090f35b50346100a457806003193601126100a4576040517f00000000000000000000000000000000000000000000000000000000000000006001600160a01b03168152602090f35b9050346103e25760603660031901126103e2576101a36103e6565b602435917f00000000000000000000000000000000000000000000000000000000000000006001600160a01b0316916044359190833b156103e257637921219560e11b82526001600160a01b03166004820152306024820152604481018490526064810182905260a060848201525f60a482018190528160c48183875af180156103d7576103c0575b5083918291826102c46102d26040978851946102488a87610471565b60018652601f198a0191823660208901378a51926102668c85610471565b60018452366020850137610279876104a7565b52610283826104a7565b5288519283916102b26020840197633db0f8ab60e01b89523060248601526060604486015260848501906104c8565b838103602319016064850152906104c8565b03601f198101835282610471565b51925af13d156103b8573d9067ffffffffffffffff82116103a457825191610304601f8201601f191660200184610471565b82523d84602084013e5b1561031d576020825160018152f35b805160449291901561036657602090915b5193849263e217b0ad60e01b84528260048501528051928391826024870152018585015e828201840152601f01601f19168101030190fd5b50602081516103758382610471565b601b81527f4275726e206661696c65643a20756e6b6e6f776e20726561736f6e0000000000828201529161032e565b634e487b7160e01b84526041600452602484fd5b60609061030e565b6103ce919294505f90610471565b5f92905f61022c565b6040513d5f823e3d90fd5b5f80fd5b600435906001600160a01b03821682036103e257565b602435906001600160a01b03821682036103e257565b9181601f840112156103e25782359167ffffffffffffffff83116103e2576020808501948460051b0101116103e257565b9181601f840112156103e25782359167ffffffffffffffff83116103e257602083818601950101116103e257565b90601f8019910116810190811067ffffffffffffffff82111761049357604052565b634e487b7160e01b5f52604160045260245ffd5b8051156104b45760200190565b634e487b7160e01b5f52603260045260245ffd5b90602080835192838152019201905f5b8181106104e55750505090565b82518452602093840193909201916001016104d856fea26469706673582212204b6acc6b9f5292595f41dd37863212cec47393d1f46870c6ff63745c97abd32964736f6c634300081a00330000000000000000000000001b5b28cef8b6f6961ad5606461495f7390f40bfb",
        "nonce": "0xf8",
        "chainId": "0xaa36a7"
      },
      "additionalContracts": [],
      "isFixedGasLimit": false
    },
    {
      "hash": null,
      "transactionType": "CALL",
      "contractName": "BurnRedeemGateway",
      "contractAddress": "0xb4ad97bda1f44b0fd9c327b1cd42501cf42d5e12",
      "function": "setAdapter(address,address)",
      "arguments": [
        "0x1B5b28cef8b6f6961AD5606461495f7390F40BFb",
        "0xaFa1Fc4AAE9657bf249D9073124D3B7c49A4Bd8a"
      ],
      "transaction": {
        "from": "0xf3a3d7f87ee5b778d3a50a6f7d8f16f7141bd132",
        "to": "0xb4ad97bda1f44b0fd9c327b1cd42501cf42d5e12",
        "gas": "0x103c0",
        "value": "0x0",
        "input": "0xba59b4ca0000000000000000000000001b5b28cef8b6f6961ad5606461495f7390f40bfb000000000000000000000000afa1fc4aae9657bf249d9073124d3b7c49a4bd8a",
        "nonce": "0xf9",
        "chainId": "0xaa36a7"
      },
      "additionalContracts": [],
      "isFixedGasLimit": false
    }
  ],
  "receipts": [],
  "libraries": [],
  "pending": [
    "0xd0e6daf22d79ef90309fb61873cbb18193322206157062596fb750a7632e7fc9",
    "0xde636d814487e9c73e0299190fef8018737c80882078acb8681b0adbc1e4bffc",
    "0x78e46e9337b9668cec0004c0bfac3dada7aa024191609099c9c1d781a205dde3",
    "0x21a84a69d007a41b4a85594cd22a0a021252b9816df174085c49bf7cf07bdd33",
    "0x59cf7ba513a44833c6e850cf0ab229c8e995c5cde8a2f8a88ccd314b882de916",
    "0xf5e19c2110eb36c68c94f394b48a51fe6400ebd636851d091ec2a64fbed3904e",
    "0x19acc77813e5a8f5a8fc49b3a18310eea347f1bbe4718c7339dfd7f4b7ed84a2",
    "0x8f50eb71dcb5872ba692e1b299ce1fc1bcd0e72d6d64e22f2025d66139d049f0",
    "0xff96d7b090ba525ae53698a904d61495e1cb3e7d0212249ad751c564ed8c4992",
    "0x24e7c5695358b5305ec37bd28cd80eccfb1f6497d2d9977a84149409d95a83d4",
    "0xcdd898b66917c3ea14a8ef47a6df2145698b0ca6f268a71f026d545f8e3bbcf0",
    "0x64247e39314fd7eb2974f9d4b3d47b1ba6e8e5d7f6c8823750907b25d6a70f9f",
    "0x9a3b641dd2a2715721bac8bc4f773b655c6317d77774ce122e024ab1b03c964d",
    "0xb4830ac01401f215c435df58bdd55a378fcfbb7a4c6b810127b99f874932d816",
    "0x135e053a270e1dd9e8e0fd62ea39efd013ad1d82e9bc0c93c279f9de32be359d",
    "0x1b7695718854f913abe6091194a67935e5af6c81c557a61932a7b08c9a42d36d",
    "0x4845d0bc0e5f81b6ea71774c1b947db53d8dc5483a92e3df3afbc2764a09abd1",
    "0x9b42105d2b7f43a826be78c8a77a663cf2eb0083470cf0d8cc407bb2a505f2af",
    "0x4eef9c47b6f154cd3983ffdf1aa93f7bb2fd0116981f74747cce584a89ec0c54",
    "0x99d2937d1d015bcff18222f4d1d4a8630e92bc0042e038fcfcc3cb98c20d2168",
    "0xca57f6d3b4ad003867c1defb2734d9f41250fe5e74b0e35bb74b9ab4ebede4e1",
    "0xbff5ad8239fb30cb475fe618ff10e1ceb65c6b2acc26befae3a7c2c070625ef0",
    "0x827c8f514540a72bffeea2a41f3f42380c8fe2b412c5b8a946cd846d04fa7424",
    "0xf9f7c01fa405ad73924eb481b7d5c224a071ca7581d22948e6633572f1e94d4e",
    "0x20f2ee74e71a262b520af289c5ab517f8b31c28ef1d0a41ac2f35a606561a756",
    "0x8107e5bfa16f01d533aad0363e5aea443b9e9d395858976d9ce4d4f9a4bf51ec",
    "0xc17e6f063bf56f00d03a9c07d08af3e0fd83674ab6cc482c4eb963910cd0592f",
    "0x67152bbd7164ad0fc3a30c1df750e6a507cf9af5019420c5a1a2e2060047de41",
    "0xbafe74d1d65fa643e2e3451c8f0208a4a183d6de441c23d356b0dcbbd990ef80",
    "0x8912707bbfbbc1db38e3469c5606e6f79714ae6a9bd45f42ccc7bfc178a14c6e"
  ],
  "returns": {},
  "timestamp": 1769491441,
  "chain": 11155111,
  "commit": "69a8c0f"
}