{
  "transactions": [
    {
      "hash": "0x8e0ff7f69c77489d88b786f532b48ea4d73e5a1a2232dd2d5a579a4f584762e7",
      "transactionType": "CALL",
      "contractName": null,
      "contractAddress": "0xe7f1725e7734ce288f8367e1bb143e90bb3f0512",
      "function": "mintPack(address)",
      "arguments": [
        "0xf39Fd6e51aad88F6F4ce6aB8827279cffFb92266"
      ],
      "transaction": {
        "from": "0xf39fd6e51aad88f6f4ce6ab8827279cfffb92266",
        "to": "0xe7f1725e7734ce288f8367e1bb143e90bb3f0512",
        "gas": "0x421c4",
        "value": "0x2386f26fc10000",
        "input": "0xafa93b48000000000000000000000000f39fd6e51aad88f6f4ce6ab8827279cfffb92266",
        "nonce": "0x6",
        "chainId": "0x539"
      },
      "additionalContracts": [],
      "isFixedGasLimit": false
    }
  ],
  "receipts": [
    {
      "status": "0x1",
      "cumulativeGasUsed": "0x2f5ff",
      "logs": [
        {
          "address": "0xe7f1725e7734ce288f8367e1bb143e90bb3f0512",
          "topics": [
            "0x4a39dc06d4c0dbc64b70af90fd698a233a518aa5d07e595d983b8c0526c8f7fb",
            "0x000000000000000000000000f39fd6e51aad88f6f4ce6ab8827279cfffb92266",
            "0x0000000000000000000000000000000000000000000000000000000000000000",
            "0x000000000000000000000000f39fd6e51aad88f6f4ce6ab8827279cfffb92266"
          ],
          "data": "0x000000000000000000000000000000000000000000000000000000000000004000000000000000000000000000000000000000000000000000000000000000c00000000000000000000000000000000000000000000000000000000000000003000000000000000000000000000000000000000000000000000000000000000a000000000000000000000000000000000000000000000000000000000000000300000000000000000000000000000000000000000000000000000000000000000000000000000000000000000000000000000000000000000000000000000003000000000000000000000000000000000000000000000000000000000000000100000000000000000000000000000000000000000000000000000000000000010000000000000000000000000000000000000000000000000000000000000001",
          "blockHash": "0xb95cdf457507eb93d298afd1369012dbb4113f097e7ae06a06d48e92cbd66d5d",
          "blockNumber": "0x6",
          "blockTimestamp": "0x68ff9323",
          "transactionHash": "0x8e0ff7f69c77489d88b786f532b48ea4d73e5a1a2232dd2d5a579a4f584762e7",
          "transactionIndex": "0x0",
          "logIndex": "0x0",
          "removed": false
        },
        {
          "address": "0xe7f1725e7734ce288f8367e1bb143e90bb3f0512",
          "topics": [
            "0x9eb0e6fdb2c176ee2ee994d647e138b3815cde20adfee97520da34efea220a96",
            "0x000000000000000000000000f39fd6e51aad88f6f4ce6ab8827279cfffb92266"
          ],
          "data": "0x000000000000000000000000000000000000000000000000000000000000000a000000000000000000000000000000000000000000000000000000000000000300000000000000000000000000000000000000000000000000000000000000000000000000000000000000000000000000000000000000000000000000000000",
          "blockHash": "0xb95cdf457507eb93d298afd1369012dbb4113f097e7ae06a06d48e92cbd66d5d",
          "blockNumber": "0x6",
          "blockTimestamp": "0x68ff9323",
          "transactionHash": "0x8e0ff7f69c77489d88b786f532b48ea4d73e5a1a2232dd2d5a579a4f584762e7",
          "transactionIndex": "0x0",
          "logIndex": "0x1",
          "removed": false
        }
      ],
      "logsBloom": "0x00000000000000000000000000000000000000000000000000000000000000000000000000000000000000000000000010000000000000000000000000000000000000000000000000000000000000000000000000000000000000000000000000000000020000000000000100000800000000000800000000000000000000000000000000000000000000000000000000000000000000000000000000000000000000000005000000000000000000000000000000000000000000000000000000000000000000200000000000001000000400002000000000000000000020000000000000000000000002000000000000000000000000800000000002000000",
      "type": "0x2",
      "transactionHash": "0x8e0ff7f69c77489d88b786f532b48ea4d73e5a1a2232dd2d5a579a4f584762e7",
      "transactionIndex": "0x0",
      "blockHash": "0xb95cdf457507eb93d298afd1369012dbb4113f097e7ae06a06d48e92cbd66d5d",
      "blockNumber": "0x6",
      "gasUsed": "0x2f5ff",
      "effectiveGasPrice": "0x2029f059",
      "blobGasPrice": "0x1",
      "from": "0xf39fd6e51aad88f6f4ce6ab8827279cfffb92266",
      "to": "0xe7f1725e7734ce288f8367e1bb143e90bb3f0512",
      "contractAddress": null
    }
  ],
  "libraries": [],
  "pending": [],
  "returns": {},
  "timestamp": 1761579811,
  "chain": 1337,
  "commit": "f7faa07"
}